{
  "_format": "hh-sol-artifact-1",
  "contractName": "MobilityToken",
  "sourceName": "contracts/MobilityToken.sol",
  "abi": [
    {
      "inputs": [
        {
          "internalType": "address",
          "name": "owner",
          "type": "address"
        }
      ],
      "stateMutability": "nonpayable",
      "type": "constructor"
    },
    {
      "inputs": [],
      "name": "ECDSAInvalidSignature",
      "type": "error"
    },
    {
      "inputs": [
        {
          "internalType": "uint256",
          "name": "length",
          "type": "uint256"
        }
      ],
      "name": "ECDSAInvalidSignatureLength",
      "type": "error"
    },
    {
      "inputs": [
        {
          "internalType": "bytes32",
          "name": "s",
          "type": "bytes32"
        }
      ],
      "name": "ECDSAInvalidSignatureS",
      "type": "error"
    },
    {
      "inputs": [
        {
          "internalType": "address",
          "name": "spender",
          "type": "address"
        },
        {
          "internalType": "uint256",
          "name": "allowance",
          "type": "uint256"
        },
        {
          "internalType": "uint256",
          "name": "needed",
          "type": "uint256"
        }
      ],
      "name": "ERC20InsufficientAllowance",
      "type": "error"
    },
    {
      "inputs": [
        {
          "internalType": "address",
          "name": "sender",
          "type": "address"
        },
        {
          "internalType": "uint256",
          "name": "balance",
          "type": "uint256"
        },
        {
          "internalType": "uint256",
          "name": "needed",
          "type": "uint256"
        }
      ],
      "name": "ERC20InsufficientBalance",
      "type": "error"
    },
    {
      "inputs": [
        {
          "internalType": "address",
          "name": "approver",
          "type": "address"
        }
      ],
      "name": "ERC20InvalidApprover",
      "type": "error"
    },
    {
      "inputs": [
        {
          "internalType": "address",
          "name": "receiver",
          "type": "address"
        }
      ],
      "name": "ERC20InvalidReceiver",
      "type": "error"
    },
    {
      "inputs": [
        {
          "internalType": "address",
          "name": "sender",
          "type": "address"
        }
      ],
      "name": "ERC20InvalidSender",
      "type": "error"
    },
    {
      "inputs": [
        {
          "internalType": "address",
          "name": "spender",
          "type": "address"
        }
      ],
      "name": "ERC20InvalidSpender",
      "type": "error"
    },
    {
      "inputs": [
        {
          "internalType": "uint256",
          "name": "deadline",
          "type": "uint256"
        }
      ],
      "name": "ERC2612ExpiredSignature",
      "type": "error"
    },
    {
      "inputs": [
        {
          "internalType": "address",
          "name": "signer",
          "type": "address"
        },
        {
          "internalType": "address",
          "name": "owner",
          "type": "address"
        }
      ],
      "name": "ERC2612InvalidSigner",
      "type": "error"
    },
    {
      "inputs": [
        {
          "internalType": "address",
          "name": "account",
          "type": "address"
        },
        {
          "internalType": "uint256",
          "name": "currentNonce",
          "type": "uint256"
        }
      ],
      "name": "InvalidAccountNonce",
      "type": "error"
    },
    {
      "inputs": [],
      "name": "InvalidShortString",
      "type": "error"
    },
    {
      "inputs": [
        {
          "internalType": "address",
          "name": "owner",
          "type": "address"
        }
      ],
      "name": "OwnableInvalidOwner",
      "type": "error"
    },
    {
      "inputs": [
        {
          "internalType": "address",
          "name": "account",
          "type": "address"
        }
      ],
      "name": "OwnableUnauthorizedAccount",
      "type": "error"
    },
    {
      "inputs": [
        {
          "internalType": "string",
          "name": "str",
          "type": "string"
        }
      ],
      "name": "StringTooLong",
      "type": "error"
    },
    {
      "anonymous": false,
      "inputs": [
        {
          "indexed": true,
          "internalType": "address",
          "name": "owner",
          "type": "address"
        },
        {
          "indexed": true,
          "internalType": "address",
          "name": "spender",
          "type": "address"
        },
        {
          "indexed": false,
          "internalType": "uint256",
          "name": "value",
          "type": "uint256"
        }
      ],
      "name": "Approval",
      "type": "event"
    },
    {
      "anonymous": false,
      "inputs": [],
      "name": "EIP712DomainChanged",
      "type": "event"
    },
    {
      "anonymous": false,
      "inputs": [
        {
          "indexed": false,
          "internalType": "address",
          "name": "user",
          "type": "address"
        }
      ],
      "name": "LogBadCall",
      "type": "event"
    },
    {
      "anonymous": false,
      "inputs": [
        {
          "indexed": false,
          "internalType": "address",
          "name": "user",
          "type": "address"
        },
        {
          "indexed": false,
          "internalType": "uint256",
          "name": "quantity",
          "type": "uint256"
        }
      ],
      "name": "LogDepot",
      "type": "event"
    },
    {
      "anonymous": false,
      "inputs": [
        {
          "indexed": true,
          "internalType": "address",
          "name": "previousOwner",
          "type": "address"
        },
        {
          "indexed": true,
          "internalType": "address",
          "name": "newOwner",
          "type": "address"
        }
      ],
      "name": "OwnershipTransferred",
      "type": "event"
    },
    {
      "anonymous": false,
      "inputs": [
        {
          "indexed": true,
          "internalType": "address",
          "name": "user",
          "type": "address"
        },
        {
          "indexed": false,
          "internalType": "uint256",
          "name": "amount",
          "type": "uint256"
        }
      ],
      "name": "Redeemed",
      "type": "event"
    },
    {
      "anonymous": false,
      "inputs": [
        {
          "indexed": true,
          "internalType": "address",
          "name": "burner",
          "type": "address"
        },
        {
          "indexed": false,
          "internalType": "uint256",
          "name": "amount",
          "type": "uint256"
        }
      ],
      "name": "TokensBurned",
      "type": "event"
    },
    {
      "anonymous": false,
      "inputs": [
        {
          "indexed": true,
          "internalType": "address",
          "name": "from",
          "type": "address"
        },
        {
          "indexed": true,
          "internalType": "address",
          "name": "to",
          "type": "address"
        },
        {
          "indexed": false,
          "internalType": "uint256",
          "name": "value",
          "type": "uint256"
        }
      ],
      "name": "Transfer",
      "type": "event"
    },
    {
      "stateMutability": "nonpayable",
      "type": "fallback"
    },
    {
      "inputs": [],
      "name": "DOMAIN_SEPARATOR",
      "outputs": [
        {
          "internalType": "bytes32",
          "name": "",
          "type": "bytes32"
        }
      ],
      "stateMutability": "view",
      "type": "function"
    },
    {
      "inputs": [
        {
          "internalType": "address",
          "name": "owner",
          "type": "address"
        },
        {
          "internalType": "address",
          "name": "spender",
          "type": "address"
        }
      ],
      "name": "allowance",
      "outputs": [
        {
          "internalType": "uint256",
          "name": "",
          "type": "uint256"
        }
      ],
      "stateMutability": "view",
      "type": "function"
    },
    {
      "inputs": [
        {
          "internalType": "address",
          "name": "spender",
          "type": "address"
        },
        {
          "internalType": "uint256",
          "name": "value",
          "type": "uint256"
        }
      ],
      "name": "approve",
      "outputs": [
        {
          "internalType": "bool",
          "name": "",
          "type": "bool"
        }
      ],
      "stateMutability": "nonpayable",
      "type": "function"
    },
    {
      "inputs": [
        {
          "internalType": "address",
          "name": "account",
          "type": "address"
        }
      ],
      "name": "balanceOf",
      "outputs": [
        {
          "internalType": "uint256",
          "name": "",
          "type": "uint256"
        }
      ],
      "stateMutability": "view",
      "type": "function"
    },
    {
      "inputs": [
        {
          "internalType": "uint256",
          "name": "value",
          "type": "uint256"
        }
      ],
      "name": "burn",
      "outputs": [],
      "stateMutability": "nonpayable",
      "type": "function"
    },
    {
      "inputs": [
        {
          "internalType": "address",
          "name": "account",
          "type": "address"
        },
        {
          "internalType": "uint256",
          "name": "value",
          "type": "uint256"
        }
      ],
      "name": "burnFrom",
      "outputs": [],
      "stateMutability": "nonpayable",
      "type": "function"
    },
    {
      "inputs": [],
      "name": "decimals",
      "outputs": [
        {
          "internalType": "uint8",
          "name": "",
          "type": "uint8"
        }
      ],
      "stateMutability": "view",
      "type": "function"
    },
    {
      "inputs": [],
      "name": "eip712Domain",
      "outputs": [
        {
          "internalType": "bytes1",
          "name": "fields",
          "type": "bytes1"
        },
        {
          "internalType": "string",
          "name": "name",
          "type": "string"
        },
        {
          "internalType": "string",
          "name": "version",
          "type": "string"
        },
        {
          "internalType": "uint256",
          "name": "chainId",
          "type": "uint256"
        },
        {
          "internalType": "address",
          "name": "verifyingContract",
          "type": "address"
        },
        {
          "internalType": "bytes32",
          "name": "salt",
          "type": "bytes32"
        },
        {
          "internalType": "uint256[]",
          "name": "extensions",
          "type": "uint256[]"
        }
      ],
      "stateMutability": "view",
      "type": "function"
    },
    {
      "inputs": [
        {
          "internalType": "uint256",
          "name": "amount",
          "type": "uint256"
        }
      ],
      "name": "fundContract",
      "outputs": [],
      "stateMutability": "nonpayable",
      "type": "function"
    },
    {
      "inputs": [
        {
          "internalType": "address",
          "name": "to",
          "type": "address"
        },
        {
          "internalType": "uint256",
          "name": "amount",
          "type": "uint256"
        }
      ],
      "name": "mint",
      "outputs": [],
      "stateMutability": "nonpayable",
      "type": "function"
    },
    {
      "inputs": [],
      "name": "name",
      "outputs": [
        {
          "internalType": "string",
          "name": "",
          "type": "string"
        }
      ],
      "stateMutability": "view",
      "type": "function"
    },
    {
      "inputs": [
        {
          "internalType": "address",
          "name": "owner",
          "type": "address"
        }
      ],
      "name": "nonces",
      "outputs": [
        {
          "internalType": "uint256",
          "name": "",
          "type": "uint256"
        }
      ],
      "stateMutability": "view",
      "type": "function"
    },
    {
      "inputs": [],
      "name": "owner",
      "outputs": [
        {
          "internalType": "address",
          "name": "",
          "type": "address"
        }
      ],
      "stateMutability": "view",
      "type": "function"
    },
    {
      "inputs": [
        {
          "internalType": "address",
          "name": "owner",
          "type": "address"
        },
        {
          "internalType": "address",
          "name": "spender",
          "type": "address"
        },
        {
          "internalType": "uint256",
          "name": "value",
          "type": "uint256"
        },
        {
          "internalType": "uint256",
          "name": "deadline",
          "type": "uint256"
        },
        {
          "internalType": "uint8",
          "name": "v",
          "type": "uint8"
        },
        {
          "internalType": "bytes32",
          "name": "r",
          "type": "bytes32"
        },
        {
          "internalType": "bytes32",
          "name": "s",
          "type": "bytes32"
        }
      ],
      "name": "permit",
      "outputs": [],
      "stateMutability": "nonpayable",
      "type": "function"
    },
    {
      "inputs": [
        {
          "internalType": "uint256",
          "name": "amount",
          "type": "uint256"
        }
      ],
      "name": "redeem",
      "outputs": [],
      "stateMutability": "payable",
      "type": "function"
    },
    {
      "inputs": [],
      "name": "renounceOwnership",
      "outputs": [],
      "stateMutability": "nonpayable",
      "type": "function"
    },
    {
      "inputs": [
        {
          "internalType": "uint256",
          "name": "amount",
          "type": "uint256"
        }
      ],
      "name": "sendAndBurn",
      "outputs": [
        {
          "internalType": "bool",
          "name": "",
          "type": "bool"
        }
      ],
      "stateMutability": "nonpayable",
      "type": "function"
    },
    {
      "inputs": [],
      "name": "symbol",
      "outputs": [
        {
          "internalType": "string",
          "name": "",
          "type": "string"
        }
      ],
      "stateMutability": "view",
      "type": "function"
    },
    {
      "inputs": [],
      "name": "totalSupply",
      "outputs": [
        {
          "internalType": "uint256",
          "name": "",
          "type": "uint256"
        }
      ],
      "stateMutability": "view",
      "type": "function"
    },
    {
      "inputs": [
        {
          "internalType": "address",
          "name": "to",
          "type": "address"
        },
        {
          "internalType": "uint256",
          "name": "value",
          "type": "uint256"
        }
      ],
      "name": "transfer",
      "outputs": [
        {
          "internalType": "bool",
          "name": "",
          "type": "bool"
        }
      ],
      "stateMutability": "nonpayable",
      "type": "function"
    },
    {
      "inputs": [
        {
          "internalType": "address",
          "name": "from",
          "type": "address"
        },
        {
          "internalType": "address",
          "name": "to",
          "type": "address"
        },
        {
          "internalType": "uint256",
          "name": "value",
          "type": "uint256"
        }
      ],
      "name": "transferFrom",
      "outputs": [
        {
          "internalType": "bool",
          "name": "",
          "type": "bool"
        }
      ],
      "stateMutability": "nonpayable",
      "type": "function"
    },
    {
      "inputs": [
        {
          "internalType": "address",
          "name": "newOwner",
          "type": "address"
        }
      ],
      "name": "transferOwnership",
      "outputs": [],
      "stateMutability": "nonpayable",
      "type": "function"
    },
    {
      "stateMutability": "payable",
      "type": "receive"
    }
  ],
  "bytecode": "0x61016060405234801561001157600080fd5b50604051613480380380613480833981810160405281019061003391906107cc565b6040518060400160405280600d81526020017f4d6f62696c697479546f6b656e00000000000000000000000000000000000000815250806040518060400160405280600181526020017f3100000000000000000000000000000000000000000000000000000000000000815250836040518060400160405280600d81526020017f4d6f62696c697479546f6b656e000000000000000000000000000000000000008152506040518060400160405280600381526020017f4d544b0000000000000000000000000000000000000000000000000000000000815250816003908161011c9190610a49565b50806004908161012c9190610a49565b505050600073ffffffffffffffffffffffffffffffffffffffff168173ffffffffffffffffffffffffffffffffffffffff16036101a15760006040517f1e4fbdf70000000000000000000000000000000000000000000000000000000081526004016101989190610b2a565b60405180910390fd5b6101b0816102d060201b60201c565b506101c560068361039660201b90919060201c565b61012081815250506101e160078261039660201b90919060201c565b6101408181525050818051906020012060e08181525050808051906020012061010081815250504660a0818152505061021e6103e660201b60201c565b608081815250503073ffffffffffffffffffffffffffffffffffffffff1660c08173ffffffffffffffffffffffffffffffffffffffff16815250505050506102938161026e61044160201b60201c565b600a61027a9190610cb4565b629896806102889190610cff565b61044a60201b60201c565b6102ca306102a561044160201b60201c565b600a6102b19190610cb4565b624c4b406102bf9190610cff565b61044a60201b60201c565b50610f80565b6000600560009054906101000a900473ffffffffffffffffffffffffffffffffffffffff16905081600560006101000a81548173ffffffffffffffffffffffffffffffffffffffff021916908373ffffffffffffffffffffffffffffffffffffffff1602179055508173ffffffffffffffffffffffffffffffffffffffff168173ffffffffffffffffffffffffffffffffffffffff167f8be0079c531659141344cd1fd0a4f28419497f9722a3daafe3b4186f6b6457e060405160405180910390a35050565b60006020835110156103b8576103b1836104d260201b60201c565b90506103e0565b826103c88361053a60201b60201c565b60000190816103d79190610a49565b5060ff60001b90505b92915050565b60007f8b73c3c69bb8fe3d512ecc4cf759cc79239f7b179b0ffacaa9a75d522b39400f60e051610100514630604051602001610426959493929190610d69565b60405160208183030381529060405280519060200120905090565b60006012905090565b600073ffffffffffffffffffffffffffffffffffffffff168273ffffffffffffffffffffffffffffffffffffffff16036104bc5760006040517fec442f050000000000000000000000000000000000000000000000000000000081526004016104b39190610b2a565b60405180910390fd5b6104ce6000838361054460201b60201c565b5050565b600080829050601f8151111561051f57826040517f305a27a90000000000000000000000000000000000000000000000000000000081526004016105169190610e41565b60405180910390fd5b80518161052b90610e93565b60001c1760001b915050919050565b6000819050919050565b600073ffffffffffffffffffffffffffffffffffffffff168373ffffffffffffffffffffffffffffffffffffffff160361059657806002600082825461058a9190610efa565b92505081905550610669565b60008060008573ffffffffffffffffffffffffffffffffffffffff1673ffffffffffffffffffffffffffffffffffffffff16815260200190815260200160002054905081811015610622578381836040517fe450d38c00000000000000000000000000000000000000000000000000000000815260040161061993929190610f2e565b60405180910390fd5b8181036000808673ffffffffffffffffffffffffffffffffffffffff1673ffffffffffffffffffffffffffffffffffffffff16815260200190815260200160002081905550505b600073ffffffffffffffffffffffffffffffffffffffff168273ffffffffffffffffffffffffffffffffffffffff16036106b257806002600082825403925050819055506106ff565b806000808473ffffffffffffffffffffffffffffffffffffffff1673ffffffffffffffffffffffffffffffffffffffff168152602001908152602001600020600082825401925050819055505b8173ffffffffffffffffffffffffffffffffffffffff168373ffffffffffffffffffffffffffffffffffffffff167fddf252ad1be2c89b69c2b068fc378daa952ba7f163c4a11628f55a4df523b3ef8360405161075c9190610f65565b60405180910390a3505050565b600080fd5b600073ffffffffffffffffffffffffffffffffffffffff82169050919050565b60006107998261076e565b9050919050565b6107a98161078e565b81146107b457600080fd5b50565b6000815190506107c6816107a0565b92915050565b6000602082840312156107e2576107e1610769565b5b60006107f0848285016107b7565b91505092915050565b600081519050919050565b7f4e487b7100000000000000000000000000000000000000000000000000000000600052604160045260246000fd5b7f4e487b7100000000000000000000000000000000000000000000000000000000600052602260045260246000fd5b6000600282049050600182168061087a57607f821691505b60208210810361088d5761088c610833565b5b50919050565b60008190508160005260206000209050919050565b60006020601f8301049050919050565b600082821b905092915050565b6000600883026108f57fffffffffffffffffffffffffffffffffffffffffffffffffffffffffffffffff826108b8565b6108ff86836108b8565b95508019841693508086168417925050509392505050565b6000819050919050565b6000819050919050565b600061094661094161093c84610917565b610921565b610917565b9050919050565b6000819050919050565b6109608361092b565b61097461096c8261094d565b8484546108c5565b825550505050565b600090565b61098961097c565b610994818484610957565b505050565b5b818110156109b8576109ad600082610981565b60018101905061099a565b5050565b601f8211156109fd576109ce81610893565b6109d7846108a8565b810160208510156109e6578190505b6109fa6109f2856108a8565b830182610999565b50505b505050565b600082821c905092915050565b6000610a2060001984600802610a02565b1980831691505092915050565b6000610a398383610a0f565b9150826002028217905092915050565b610a52826107f9565b67ffffffffffffffff811115610a6b57610a6a610804565b5b610a758254610862565b610a808282856109bc565b600060209050601f831160018114610ab35760008415610aa1578287015190505b610aab8582610a2d565b865550610b13565b601f198416610ac186610893565b60005b82811015610ae957848901518255600182019150602085019450602081019050610ac4565b86831015610b065784890151610b02601f891682610a0f565b8355505b6001600288020188555050505b505050505050565b610b248161078e565b82525050565b6000602082019050610b3f6000830184610b1b565b92915050565b7f4e487b7100000000000000000000000000000000000000000000000000000000600052601160045260246000fd5b60008160011c9050919050565b6000808291508390505b6001851115610bcb57808604811115610ba757610ba6610b45565b5b6001851615610bb65780820291505b8081029050610bc485610b74565b9450610b8b565b94509492505050565b600082610be45760019050610ca0565b81610bf25760009050610ca0565b8160018114610c085760028114610c1257610c41565b6001915050610ca0565b60ff841115610c2457610c23610b45565b5b8360020a915084821115610c3b57610c3a610b45565b5b50610ca0565b5060208310610133831016604e8410600b8410161715610c765782820a905083811115610c7157610c70610b45565b5b610ca0565b610c838484846001610b81565b92509050818404811115610c9a57610c99610b45565b5b81810290505b9392505050565b600060ff82169050919050565b6000610cbf82610917565b9150610cca83610ca7565b9250610cf77fffffffffffffffffffffffffffffffffffffffffffffffffffffffffffffffff8484610bd4565b905092915050565b6000610d0a82610917565b9150610d1583610917565b9250828202610d2381610917565b91508282048414831517610d3a57610d39610b45565b5b5092915050565b6000819050919050565b610d5481610d41565b82525050565b610d6381610917565b82525050565b600060a082019050610d7e6000830188610d4b565b610d8b6020830187610d4b565b610d986040830186610d4b565b610da56060830185610d5a565b610db26080830184610b1b565b9695505050505050565b600082825260208201905092915050565b60005b83811015610deb578082015181840152602081019050610dd0565b60008484015250505050565b6000601f19601f8301169050919050565b6000610e13826107f9565b610e1d8185610dbc565b9350610e2d818560208601610dcd565b610e3681610df7565b840191505092915050565b60006020820190508181036000830152610e5b8184610e08565b905092915050565b600081519050919050565b6000819050602082019050919050565b6000610e8a8251610d41565b80915050919050565b6000610e9e82610e63565b82610ea884610e6e565b9050610eb381610e7e565b92506020821015610ef357610eee7fffffffffffffffffffffffffffffffffffffffffffffffffffffffffffffffff836020036008026108b8565b831692505b5050919050565b6000610f0582610917565b9150610f1083610917565b9250828201905080821115610f2857610f27610b45565b5b92915050565b6000606082019050610f436000830186610b1b565b610f506020830185610d5a565b610f5d6040830184610d5a565b949350505050565b6000602082019050610f7a6000830184610d5a565b92915050565b60805160a05160c05160e0516101005161012051610140516124a6610fda60003960006111e5015260006111aa015260006116fa015260006116d901526000610edb01526000610f3101526000610f5a01526124a66000f3fe6080604052600436106101395760003560e01c806379cc6790116100ab578063a9059cbb1161006f578063a9059cbb146104a1578063d505accf146104de578063d59f084a14610507578063db006a7514610544578063dd62ed3e14610560578063f2fde38b1461059d57610179565b806379cc6790146103b45780637ecebe00146103dd57806384b0196e1461041a5780638da5cb5b1461044b57806395d89b411461047657610179565b80633519a2f8116100fd5780633519a2f8146102ba5780633644e515146102e357806340c10f191461030e57806342966c681461033757806370a0823114610360578063715018a61461039d57610179565b806306fdde03146101bf578063095ea7b3146101ea57806318160ddd1461022757806323b872dd14610252578063313ce5671461028f57610179565b36610179577f1d76c7e5736b9b335988489baea5b96ec803f8f1194842fe5ce3a6ec85e79b56333460405161016f929190611bb1565b60405180910390a1005b34801561018557600080fd5b507fcc97ff3d49208ba08dc7ada5cf9e88e59e047be7d363118838f7af1233c49c43336040516101b59190611bda565b60405180910390a1005b3480156101cb57600080fd5b506101d46105c6565b6040516101e19190611c85565b60405180910390f35b3480156101f657600080fd5b50610211600480360381019061020c9190611d04565b610658565b60405161021e9190611d5f565b60405180910390f35b34801561023357600080fd5b5061023c61067b565b6040516102499190611d7a565b60405180910390f35b34801561025e57600080fd5b5061027960048036038101906102749190611d95565b610685565b6040516102869190611d5f565b60405180910390f35b34801561029b57600080fd5b506102a46106b4565b6040516102b19190611e04565b60405180910390f35b3480156102c657600080fd5b506102e160048036038101906102dc9190611e1f565b6106bd565b005b3480156102ef57600080fd5b506102f86106da565b6040516103059190611e65565b60405180910390f35b34801561031a57600080fd5b5061033560048036038101906103309190611d04565b6106e9565b005b34801561034357600080fd5b5061035e60048036038101906103599190611e1f565b6106ff565b005b34801561036c57600080fd5b5061038760048036038101906103829190611e80565b610713565b6040516103949190611d7a565b60405180910390f35b3480156103a957600080fd5b506103b261075b565b005b3480156103c057600080fd5b506103db60048036038101906103d69190611d04565b61076f565b005b3480156103e957600080fd5b5061040460048036038101906103ff9190611e80565b61078f565b6040516104119190611d7a565b60405180910390f35b34801561042657600080fd5b5061042f6107a1565b6040516104429796959493929190611fa6565b60405180910390f35b34801561045757600080fd5b5061046061084b565b60405161046d9190611bda565b60405180910390f35b34801561048257600080fd5b5061048b610875565b6040516104989190611c85565b60405180910390f35b3480156104ad57600080fd5b506104c860048036038101906104c39190611d04565b610907565b6040516104d59190611d5f565b60405180910390f35b3480156104ea57600080fd5b5061050560048036038101906105009190612082565b61092a565b005b34801561051357600080fd5b5061052e60048036038101906105299190611e1f565b610a72565b60405161053b9190611d5f565b60405180910390f35b61055e60048036038101906105599190611e1f565b610af9565b005b34801561056c57600080fd5b5061058760048036038101906105829190612124565b610ba0565b6040516105949190611d7a565b60405180910390f35b3480156105a957600080fd5b506105c460048036038101906105bf9190611e80565b610c27565b005b6060600380546105d590612193565b80601f016020809104026020016040519081016040528092919081815260200182805461060190612193565b801561064e5780601f106106235761010080835404028352916020019161064e565b820191906000526020600020905b81548152906001019060200180831161063157829003601f168201915b5050505050905090565b600080610663610cad565b9050610670818585610cb5565b600191505092915050565b6000600254905090565b600080610690610cad565b905061069d858285610cc7565b6106a8858585610d5c565b60019150509392505050565b60006012905090565b6106c5610e50565b6106d76106d061084b565b3083610d5c565b50565b60006106e4610ed7565b905090565b6106f1610e50565b6106fb8282610f8e565b5050565b61071061070a610cad565b82611010565b50565b60008060008373ffffffffffffffffffffffffffffffffffffffff1673ffffffffffffffffffffffffffffffffffffffff168152602001908152602001600020549050919050565b610763610e50565b61076d6000611092565b565b6107818261077b610cad565b83610cc7565b61078b8282611010565b5050565b600061079a82611158565b9050919050565b6000606080600080600060606107b56111a1565b6107bd6111dc565b46306000801b600067ffffffffffffffff8111156107de576107dd6121c4565b5b60405190808252806020026020018201604052801561080c5781602001602082028036833780820191505090505b507f0f00000000000000000000000000000000000000000000000000000000000000959493929190965096509650965096509650965090919293949596565b6000600560009054906101000a900473ffffffffffffffffffffffffffffffffffffffff16905090565b60606004805461088490612193565b80601f01602080910402602001604051908101604052809291908181526020018280546108b090612193565b80156108fd5780601f106108d2576101008083540402835291602001916108fd565b820191906000526020600020905b8154815290600101906020018083116108e057829003601f168201915b5050505050905090565b600080610912610cad565b905061091f818585610d5c565b600191505092915050565b8342111561096f57836040517f627913020000000000000000000000000000000000000000000000000000000081526004016109669190611d7a565b60405180910390fd5b60007f6e71edae12b1b97f4d1f60370fef10105fa2faae0126114a169c64845d6126c988888861099e8c611217565b896040516020016109b4969594939291906121f3565b60405160208183030381529060405280519060200120905060006109d78261126e565b905060006109e782878787611288565b90508973ffffffffffffffffffffffffffffffffffffffff168173ffffffffffffffffffffffffffffffffffffffff1614610a5b57808a6040517f4b800e46000000000000000000000000000000000000000000000000000000008152600401610a52929190612254565b60405180910390fd5b610a668a8a8a610cb5565b50505050505050505050565b600080821480610a89575081610a8733610713565b105b15610a975760009050610af4565b610aa13383611010565b3373ffffffffffffffffffffffffffffffffffffffff167ffd38818f5291bf0bb3a2a48aadc06ba8757865d1dabd804585338aab3009dcb683604051610ae79190611d7a565b60405180910390a2600190505b919050565b80610b0330610713565b1015610b44576040517f08c379a0000000000000000000000000000000000000000000000000000000008152600401610b3b906122ef565b60405180910390fd5b610b4f303383610d5c565b3373ffffffffffffffffffffffffffffffffffffffff167f4896181ff8f4543cc00db9fe9b6fb7e6f032b7eb772c72ab1ec1b4d2e03b936982604051610b959190611d7a565b60405180910390a250565b6000600160008473ffffffffffffffffffffffffffffffffffffffff1673ffffffffffffffffffffffffffffffffffffffff16815260200190815260200160002060008373ffffffffffffffffffffffffffffffffffffffff1673ffffffffffffffffffffffffffffffffffffffff16815260200190815260200160002054905092915050565b610c2f610e50565b600073ffffffffffffffffffffffffffffffffffffffff168173ffffffffffffffffffffffffffffffffffffffff1603610ca15760006040517f1e4fbdf7000000000000000000000000000000000000000000000000000000008152600401610c989190611bda565b60405180910390fd5b610caa81611092565b50565b600033905090565b610cc283838360016112b8565b505050565b6000610cd38484610ba0565b90507fffffffffffffffffffffffffffffffffffffffffffffffffffffffffffffffff811015610d565781811015610d46578281836040517ffb8f41b2000000000000000000000000000000000000000000000000000000008152600401610d3d9392919061230f565b60405180910390fd5b610d55848484840360006112b8565b5b50505050565b600073ffffffffffffffffffffffffffffffffffffffff168373ffffffffffffffffffffffffffffffffffffffff1603610dce5760006040517f96c6fd1e000000000000000000000000000000000000000000000000000000008152600401610dc59190611bda565b60405180910390fd5b600073ffffffffffffffffffffffffffffffffffffffff168273ffffffffffffffffffffffffffffffffffffffff1603610e405760006040517fec442f05000000000000000000000000000000000000000000000000000000008152600401610e379190611bda565b60405180910390fd5b610e4b83838361148f565b505050565b610e58610cad565b73ffffffffffffffffffffffffffffffffffffffff16610e7661084b565b73ffffffffffffffffffffffffffffffffffffffff1614610ed557610e99610cad565b6040517f118cdaa7000000000000000000000000000000000000000000000000000000008152600401610ecc9190611bda565b60405180910390fd5b565b60007f000000000000000000000000000000000000000000000000000000000000000073ffffffffffffffffffffffffffffffffffffffff163073ffffffffffffffffffffffffffffffffffffffff16148015610f5357507f000000000000000000000000000000000000000000000000000000000000000046145b15610f80577f00000000000000000000000000000000000000000000000000000000000000009050610f8b565b610f886116b4565b90505b90565b600073ffffffffffffffffffffffffffffffffffffffff168273ffffffffffffffffffffffffffffffffffffffff16036110005760006040517fec442f05000000000000000000000000000000000000000000000000000000008152600401610ff79190611bda565b60405180910390fd5b61100c6000838361148f565b5050565b600073ffffffffffffffffffffffffffffffffffffffff168273ffffffffffffffffffffffffffffffffffffffff16036110825760006040517f96c6fd1e0000000000000000000000000000000000000000000000000000000081526004016110799190611bda565b60405180910390fd5b61108e8260008361148f565b5050565b6000600560009054906101000a900473ffffffffffffffffffffffffffffffffffffffff16905081600560006101000a81548173ffffffffffffffffffffffffffffffffffffffff021916908373ffffffffffffffffffffffffffffffffffffffff1602179055508173ffffffffffffffffffffffffffffffffffffffff168173ffffffffffffffffffffffffffffffffffffffff167f8be0079c531659141344cd1fd0a4f28419497f9722a3daafe3b4186f6b6457e060405160405180910390a35050565b6000600860008373ffffffffffffffffffffffffffffffffffffffff1673ffffffffffffffffffffffffffffffffffffffff168152602001908152602001600020549050919050565b60606111d760067f000000000000000000000000000000000000000000000000000000000000000061174a90919063ffffffff16565b905090565b606061121260077f000000000000000000000000000000000000000000000000000000000000000061174a90919063ffffffff16565b905090565b6000600860008373ffffffffffffffffffffffffffffffffffffffff1673ffffffffffffffffffffffffffffffffffffffff1681526020019081526020016000206000815480929190600101919050559050919050565b600061128161127b610ed7565b836117fa565b9050919050565b60008060008061129a8888888861183b565b9250925092506112aa828261192f565b829350505050949350505050565b600073ffffffffffffffffffffffffffffffffffffffff168473ffffffffffffffffffffffffffffffffffffffff160361132a5760006040517fe602df050000000000000000000000000000000000000000000000000000000081526004016113219190611bda565b60405180910390fd5b600073ffffffffffffffffffffffffffffffffffffffff168373ffffffffffffffffffffffffffffffffffffffff160361139c5760006040517f94280d620000000000000000000000000000000000000000000000000000000081526004016113939190611bda565b60405180910390fd5b81600160008673ffffffffffffffffffffffffffffffffffffffff1673ffffffffffffffffffffffffffffffffffffffff16815260200190815260200160002060008573ffffffffffffffffffffffffffffffffffffffff1673ffffffffffffffffffffffffffffffffffffffff168152602001908152602001600020819055508015611489578273ffffffffffffffffffffffffffffffffffffffff168473ffffffffffffffffffffffffffffffffffffffff167f8c5be1e5ebec7d5bd14f71427d1e84f3dd0314c0f7b2291e5b200ac8c7c3b925846040516114809190611d7a565b60405180910390a35b50505050565b600073ffffffffffffffffffffffffffffffffffffffff168373ffffffffffffffffffffffffffffffffffffffff16036114e15780600260008282546114d59190612375565b925050819055506115b4565b60008060008573ffffffffffffffffffffffffffffffffffffffff1673ffffffffffffffffffffffffffffffffffffffff1681526020019081526020016000205490508181101561156d578381836040517fe450d38c0000000000000000000000000000000000000000000000000000000081526004016115649392919061230f565b60405180910390fd5b8181036000808673ffffffffffffffffffffffffffffffffffffffff1673ffffffffffffffffffffffffffffffffffffffff16815260200190815260200160002081905550505b600073ffffffffffffffffffffffffffffffffffffffff168273ffffffffffffffffffffffffffffffffffffffff16036115fd578060026000828254039250508190555061164a565b806000808473ffffffffffffffffffffffffffffffffffffffff1673ffffffffffffffffffffffffffffffffffffffff168152602001908152602001600020600082825401925050819055505b8173ffffffffffffffffffffffffffffffffffffffff168373ffffffffffffffffffffffffffffffffffffffff167fddf252ad1be2c89b69c2b068fc378daa952ba7f163c4a11628f55a4df523b3ef836040516116a79190611d7a565b60405180910390a3505050565b60007f8b73c3c69bb8fe3d512ecc4cf759cc79239f7b179b0ffacaa9a75d522b39400f7f00000000000000000000000000000000000000000000000000000000000000007f0000000000000000000000000000000000000000000000000000000000000000463060405160200161172f9594939291906123a9565b60405160208183030381529060405280519060200120905090565b606060ff60001b83146117675761176083611a93565b90506117f4565b81805461177390612193565b80601f016020809104026020016040519081016040528092919081815260200182805461179f90612193565b80156117ec5780601f106117c1576101008083540402835291602001916117ec565b820191906000526020600020905b8154815290600101906020018083116117cf57829003601f168201915b505050505090505b92915050565b60006040517f190100000000000000000000000000000000000000000000000000000000000081528360028201528260228201526042812091505092915050565b60008060007f7fffffffffffffffffffffffffffffff5d576e7357a4501ddfe92f46681b20a08460001c111561187b576000600385925092509250611925565b6000600188888888604051600081526020016040526040516118a094939291906123fc565b6020604051602081039080840390855afa1580156118c2573d6000803e3d6000fd5b505050602060405103519050600073ffffffffffffffffffffffffffffffffffffffff168173ffffffffffffffffffffffffffffffffffffffff160361191657600060016000801b93509350935050611925565b8060008060001b935093509350505b9450945094915050565b6000600381111561194357611942612441565b5b82600381111561195657611955612441565b5b0315611a8f57600160038111156119705761196f612441565b5b82600381111561198357611982612441565b5b036119ba576040517ff645eedf00000000000000000000000000000000000000000000000000000000815260040160405180910390fd5b600260038111156119ce576119cd612441565b5b8260038111156119e1576119e0612441565b5b03611a26578060001c6040517ffce698f7000000000000000000000000000000000000000000000000000000008152600401611a1d9190611d7a565b60405180910390fd5b600380811115611a3957611a38612441565b5b826003811115611a4c57611a4b612441565b5b03611a8e57806040517fd78bce0c000000000000000000000000000000000000000000000000000000008152600401611a859190611e65565b60405180910390fd5b5b5050565b60606000611aa083611b07565b90506000602067ffffffffffffffff811115611abf57611abe6121c4565b5b6040519080825280601f01601f191660200182016040528015611af15781602001600182028036833780820191505090505b5090508181528360208201528092505050919050565b60008060ff8360001c169050601f811115611b4e576040517fb3512b0c00000000000000000000000000000000000000000000000000000000815260040160405180910390fd5b80915050919050565b600073ffffffffffffffffffffffffffffffffffffffff82169050919050565b6000611b8282611b57565b9050919050565b611b9281611b77565b82525050565b6000819050919050565b611bab81611b98565b82525050565b6000604082019050611bc66000830185611b89565b611bd36020830184611ba2565b9392505050565b6000602082019050611bef6000830184611b89565b92915050565b600081519050919050565b600082825260208201905092915050565b60005b83811015611c2f578082015181840152602081019050611c14565b60008484015250505050565b6000601f19601f8301169050919050565b6000611c5782611bf5565b611c618185611c00565b9350611c71818560208601611c11565b611c7a81611c3b565b840191505092915050565b60006020820190508181036000830152611c9f8184611c4c565b905092915050565b600080fd5b611cb581611b77565b8114611cc057600080fd5b50565b600081359050611cd281611cac565b92915050565b611ce181611b98565b8114611cec57600080fd5b50565b600081359050611cfe81611cd8565b92915050565b60008060408385031215611d1b57611d1a611ca7565b5b6000611d2985828601611cc3565b9250506020611d3a85828601611cef565b9150509250929050565b60008115159050919050565b611d5981611d44565b82525050565b6000602082019050611d746000830184611d50565b92915050565b6000602082019050611d8f6000830184611ba2565b92915050565b600080600060608486031215611dae57611dad611ca7565b5b6000611dbc86828701611cc3565b9350506020611dcd86828701611cc3565b9250506040611dde86828701611cef565b9150509250925092565b600060ff82169050919050565b611dfe81611de8565b82525050565b6000602082019050611e196000830184611df5565b92915050565b600060208284031215611e3557611e34611ca7565b5b6000611e4384828501611cef565b91505092915050565b6000819050919050565b611e5f81611e4c565b82525050565b6000602082019050611e7a6000830184611e56565b92915050565b600060208284031215611e9657611e95611ca7565b5b6000611ea484828501611cc3565b91505092915050565b60007fff0000000000000000000000000000000000000000000000000000000000000082169050919050565b611ee281611ead565b82525050565b600081519050919050565b600082825260208201905092915050565b6000819050602082019050919050565b611f1d81611b98565b82525050565b6000611f2f8383611f14565b60208301905092915050565b6000602082019050919050565b6000611f5382611ee8565b611f5d8185611ef3565b9350611f6883611f04565b8060005b83811015611f99578151611f808882611f23565b9750611f8b83611f3b565b925050600181019050611f6c565b5085935050505092915050565b600060e082019050611fbb600083018a611ed9565b8181036020830152611fcd8189611c4c565b90508181036040830152611fe18188611c4c565b9050611ff06060830187611ba2565b611ffd6080830186611b89565b61200a60a0830185611e56565b81810360c083015261201c8184611f48565b905098975050505050505050565b61203381611de8565b811461203e57600080fd5b50565b6000813590506120508161202a565b92915050565b61205f81611e4c565b811461206a57600080fd5b50565b60008135905061207c81612056565b92915050565b600080600080600080600060e0888a0312156120a1576120a0611ca7565b5b60006120af8a828b01611cc3565b97505060206120c08a828b01611cc3565b96505060406120d18a828b01611cef565b95505060606120e28a828b01611cef565b94505060806120f38a828b01612041565b93505060a06121048a828b0161206d565b92505060c06121158a828b0161206d565b91505092959891949750929550565b6000806040838503121561213b5761213a611ca7565b5b600061214985828601611cc3565b925050602061215a85828601611cc3565b9150509250929050565b7f4e487b7100000000000000000000000000000000000000000000000000000000600052602260045260246000fd5b600060028204905060018216806121ab57607f821691505b6020821081036121be576121bd612164565b5b50919050565b7f4e487b7100000000000000000000000000000000000000000000000000000000600052604160045260246000fd5b600060c0820190506122086000830189611e56565b6122156020830188611b89565b6122226040830187611b89565b61222f6060830186611ba2565b61223c6080830185611ba2565b61224960a0830184611ba2565b979650505050505050565b60006040820190506122696000830185611b89565b6122766020830184611b89565b9392505050565b7f4d6f62696c697479546f6b656e3a20496e73756666696369656e7420636f6e7460008201527f726163742062616c616e63650000000000000000000000000000000000000000602082015250565b60006122d9602c83611c00565b91506122e48261227d565b604082019050919050565b60006020820190508181036000830152612308816122cc565b9050919050565b60006060820190506123246000830186611b89565b6123316020830185611ba2565b61233e6040830184611ba2565b949350505050565b7f4e487b7100000000000000000000000000000000000000000000000000000000600052601160045260246000fd5b600061238082611b98565b915061238b83611b98565b92508282019050808211156123a3576123a2612346565b5b92915050565b600060a0820190506123be6000830188611e56565b6123cb6020830187611e56565b6123d86040830186611e56565b6123e56060830185611ba2565b6123f26080830184611b89565b9695505050505050565b60006080820190506124116000830187611e56565b61241e6020830186611df5565b61242b6040830185611e56565b6124386060830184611e56565b95945050505050565b7f4e487b7100000000000000000000000000000000000000000000000000000000600052602160045260246000fdfea2646970667358221220938182c85a6b6d8430a8b51778f06f6d10f0575c2288fc4b84750453dd4d730764736f6c634300081c0033",
  "linkReferences": {},
  "deployedLinkReferences": {}
}