{
  "_format": "hh-sol-artifact-1",
  "contractName": "MobilityToken",
  "sourceName": "contracts/MobilityToken.sol",
  "abi": [
    {
      "inputs": [
        {
          "internalType": "address",
          "name": "owner",
          "type": "address"
        }
      ],
      "stateMutability": "nonpayable",
      "type": "constructor"
    },
    {
      "inputs": [],
      "name": "ECDSAInvalidSignature",
      "type": "error"
    },
    {
      "inputs": [
        {
          "internalType": "uint256",
          "name": "length",
          "type": "uint256"
        }
      ],
      "name": "ECDSAInvalidSignatureLength",
      "type": "error"
    },
    {
      "inputs": [
        {
          "internalType": "bytes32",
          "name": "s",
          "type": "bytes32"
        }
      ],
      "name": "ECDSAInvalidSignatureS",
      "type": "error"
    },
    {
      "inputs": [
        {
          "internalType": "address",
          "name": "spender",
          "type": "address"
        },
        {
          "internalType": "uint256",
          "name": "allowance",
          "type": "uint256"
        },
        {
          "internalType": "uint256",
          "name": "needed",
          "type": "uint256"
        }
      ],
      "name": "ERC20InsufficientAllowance",
      "type": "error"
    },
    {
      "inputs": [
        {
          "internalType": "address",
          "name": "sender",
          "type": "address"
        },
        {
          "internalType": "uint256",
          "name": "balance",
          "type": "uint256"
        },
        {
          "internalType": "uint256",
          "name": "needed",
          "type": "uint256"
        }
      ],
      "name": "ERC20InsufficientBalance",
      "type": "error"
    },
    {
      "inputs": [
        {
          "internalType": "address",
          "name": "approver",
          "type": "address"
        }
      ],
      "name": "ERC20InvalidApprover",
      "type": "error"
    },
    {
      "inputs": [
        {
          "internalType": "address",
          "name": "receiver",
          "type": "address"
        }
      ],
      "name": "ERC20InvalidReceiver",
      "type": "error"
    },
    {
      "inputs": [
        {
          "internalType": "address",
          "name": "sender",
          "type": "address"
        }
      ],
      "name": "ERC20InvalidSender",
      "type": "error"
    },
    {
      "inputs": [
        {
          "internalType": "address",
          "name": "spender",
          "type": "address"
        }
      ],
      "name": "ERC20InvalidSpender",
      "type": "error"
    },
    {
      "inputs": [
        {
          "internalType": "uint256",
          "name": "deadline",
          "type": "uint256"
        }
      ],
      "name": "ERC2612ExpiredSignature",
      "type": "error"
    },
    {
      "inputs": [
        {
          "internalType": "address",
          "name": "signer",
          "type": "address"
        },
        {
          "internalType": "address",
          "name": "owner",
          "type": "address"
        }
      ],
      "name": "ERC2612InvalidSigner",
      "type": "error"
    },
    {
      "inputs": [
        {
          "internalType": "address",
          "name": "account",
          "type": "address"
        },
        {
          "internalType": "uint256",
          "name": "currentNonce",
          "type": "uint256"
        }
      ],
      "name": "InvalidAccountNonce",
      "type": "error"
    },
    {
      "inputs": [],
      "name": "InvalidShortString",
      "type": "error"
    },
    {
      "inputs": [
        {
          "internalType": "address",
          "name": "owner",
          "type": "address"
        }
      ],
      "name": "OwnableInvalidOwner",
      "type": "error"
    },
    {
      "inputs": [
        {
          "internalType": "address",
          "name": "account",
          "type": "address"
        }
      ],
      "name": "OwnableUnauthorizedAccount",
      "type": "error"
    },
    {
      "inputs": [
        {
          "internalType": "string",
          "name": "str",
          "type": "string"
        }
      ],
      "name": "StringTooLong",
      "type": "error"
    },
    {
      "anonymous": false,
      "inputs": [
        {
          "indexed": true,
          "internalType": "address",
          "name": "owner",
          "type": "address"
        },
        {
          "indexed": true,
          "internalType": "address",
          "name": "spender",
          "type": "address"
        },
        {
          "indexed": false,
          "internalType": "uint256",
          "name": "value",
          "type": "uint256"
        }
      ],
      "name": "Approval",
      "type": "event"
    },
    {
      "anonymous": false,
      "inputs": [],
      "name": "EIP712DomainChanged",
      "type": "event"
    },
    {
      "anonymous": false,
      "inputs": [
        {
          "indexed": false,
          "internalType": "address",
          "name": "user",
          "type": "address"
        }
      ],
      "name": "LogBadCall",
      "type": "event"
    },
    {
      "anonymous": false,
      "inputs": [
        {
          "indexed": false,
          "internalType": "address",
          "name": "user",
          "type": "address"
        },
        {
          "indexed": false,
          "internalType": "uint256",
          "name": "quantity",
          "type": "uint256"
        }
      ],
      "name": "LogDepot",
      "type": "event"
    },
    {
      "anonymous": false,
      "inputs": [
        {
          "indexed": true,
          "internalType": "address",
          "name": "previousOwner",
          "type": "address"
        },
        {
          "indexed": true,
          "internalType": "address",
          "name": "newOwner",
          "type": "address"
        }
      ],
      "name": "OwnershipTransferred",
      "type": "event"
    },
    {
      "anonymous": false,
      "inputs": [
        {
          "indexed": true,
          "internalType": "address",
          "name": "user",
          "type": "address"
        },
        {
          "indexed": false,
          "internalType": "uint256",
          "name": "amount",
          "type": "uint256"
        }
      ],
      "name": "Redeemed",
      "type": "event"
    },
    {
      "anonymous": false,
      "inputs": [
        {
          "indexed": true,
          "internalType": "address",
          "name": "burner",
          "type": "address"
        },
        {
          "indexed": false,
          "internalType": "uint256",
          "name": "amount",
          "type": "uint256"
        }
      ],
      "name": "TokensBurned",
      "type": "event"
    },
    {
      "anonymous": false,
      "inputs": [
        {
          "indexed": true,
          "internalType": "address",
          "name": "from",
          "type": "address"
        },
        {
          "indexed": true,
          "internalType": "address",
          "name": "to",
          "type": "address"
        },
        {
          "indexed": false,
          "internalType": "uint256",
          "name": "value",
          "type": "uint256"
        }
      ],
      "name": "Transfer",
      "type": "event"
    },
    {
      "stateMutability": "nonpayable",
      "type": "fallback"
    },
    {
      "inputs": [],
      "name": "DOMAIN_SEPARATOR",
      "outputs": [
        {
          "internalType": "bytes32",
          "name": "",
          "type": "bytes32"
        }
      ],
      "stateMutability": "view",
      "type": "function"
    },
    {
      "inputs": [
        {
          "internalType": "address",
          "name": "owner",
          "type": "address"
        },
        {
          "internalType": "address",
          "name": "spender",
          "type": "address"
        }
      ],
      "name": "allowance",
      "outputs": [
        {
          "internalType": "uint256",
          "name": "",
          "type": "uint256"
        }
      ],
      "stateMutability": "view",
      "type": "function"
    },
    {
      "inputs": [
        {
          "internalType": "address",
          "name": "spender",
          "type": "address"
        },
        {
          "internalType": "uint256",
          "name": "value",
          "type": "uint256"
        }
      ],
      "name": "approve",
      "outputs": [
        {
          "internalType": "bool",
          "name": "",
          "type": "bool"
        }
      ],
      "stateMutability": "nonpayable",
      "type": "function"
    },
    {
      "inputs": [
        {
          "internalType": "address",
          "name": "account",
          "type": "address"
        }
      ],
      "name": "balanceOf",
      "outputs": [
        {
          "internalType": "uint256",
          "name": "",
          "type": "uint256"
        }
      ],
      "stateMutability": "view",
      "type": "function"
    },
    {
      "inputs": [
        {
          "internalType": "address",
          "name": "user",
          "type": "address"
        },
        {
          "internalType": "string",
          "name": "boardingref",
          "type": "string"
        }
      ],
      "name": "beenClaimed",
      "outputs": [
        {
          "internalType": "bool",
          "name": "",
          "type": "bool"
        }
      ],
      "stateMutability": "view",
      "type": "function"
    },
    {
      "inputs": [
        {
          "internalType": "uint256",
          "name": "value",
          "type": "uint256"
        }
      ],
      "name": "burn",
      "outputs": [],
      "stateMutability": "nonpayable",
      "type": "function"
    },
    {
      "inputs": [
        {
          "internalType": "address",
          "name": "account",
          "type": "address"
        },
        {
          "internalType": "uint256",
          "name": "value",
          "type": "uint256"
        }
      ],
      "name": "burnFrom",
      "outputs": [],
      "stateMutability": "nonpayable",
      "type": "function"
    },
    {
      "inputs": [],
      "name": "decimals",
      "outputs": [
        {
          "internalType": "uint8",
          "name": "",
          "type": "uint8"
        }
      ],
      "stateMutability": "view",
      "type": "function"
    },
    {
      "inputs": [],
      "name": "eip712Domain",
      "outputs": [
        {
          "internalType": "bytes1",
          "name": "fields",
          "type": "bytes1"
        },
        {
          "internalType": "string",
          "name": "name",
          "type": "string"
        },
        {
          "internalType": "string",
          "name": "version",
          "type": "string"
        },
        {
          "internalType": "uint256",
          "name": "chainId",
          "type": "uint256"
        },
        {
          "internalType": "address",
          "name": "verifyingContract",
          "type": "address"
        },
        {
          "internalType": "bytes32",
          "name": "salt",
          "type": "bytes32"
        },
        {
          "internalType": "uint256[]",
          "name": "extensions",
          "type": "uint256[]"
        }
      ],
      "stateMutability": "view",
      "type": "function"
    },
    {
      "inputs": [
        {
          "internalType": "uint256",
          "name": "amount",
          "type": "uint256"
        }
      ],
      "name": "fundContract",
      "outputs": [],
      "stateMutability": "nonpayable",
      "type": "function"
    },
    {
      "inputs": [
        {
          "internalType": "address",
          "name": "user",
          "type": "address"
        }
      ],
      "name": "getBalance",
      "outputs": [
        {
          "internalType": "uint256",
          "name": "",
          "type": "uint256"
        }
      ],
      "stateMutability": "view",
      "type": "function"
    },
    {
      "inputs": [
        {
          "internalType": "address",
          "name": "",
          "type": "address"
        },
        {
          "internalType": "string",
          "name": "",
          "type": "string"
        }
      ],
      "name": "hasBeenClaimed",
      "outputs": [
        {
          "internalType": "bool",
          "name": "",
          "type": "bool"
        }
      ],
      "stateMutability": "view",
      "type": "function"
    },
    {
      "inputs": [
        {
          "internalType": "address",
          "name": "to",
          "type": "address"
        },
        {
          "internalType": "uint256",
          "name": "amount",
          "type": "uint256"
        }
      ],
      "name": "mint",
      "outputs": [],
      "stateMutability": "nonpayable",
      "type": "function"
    },
    {
      "inputs": [],
      "name": "name",
      "outputs": [
        {
          "internalType": "string",
          "name": "",
          "type": "string"
        }
      ],
      "stateMutability": "view",
      "type": "function"
    },
    {
      "inputs": [
        {
          "internalType": "address",
          "name": "owner",
          "type": "address"
        }
      ],
      "name": "nonces",
      "outputs": [
        {
          "internalType": "uint256",
          "name": "",
          "type": "uint256"
        }
      ],
      "stateMutability": "view",
      "type": "function"
    },
    {
      "inputs": [],
      "name": "owner",
      "outputs": [
        {
          "internalType": "address",
          "name": "",
          "type": "address"
        }
      ],
      "stateMutability": "view",
      "type": "function"
    },
    {
      "inputs": [
        {
          "internalType": "address",
          "name": "owner",
          "type": "address"
        },
        {
          "internalType": "address",
          "name": "spender",
          "type": "address"
        },
        {
          "internalType": "uint256",
          "name": "value",
          "type": "uint256"
        },
        {
          "internalType": "uint256",
          "name": "deadline",
          "type": "uint256"
        },
        {
          "internalType": "uint8",
          "name": "v",
          "type": "uint8"
        },
        {
          "internalType": "bytes32",
          "name": "r",
          "type": "bytes32"
        },
        {
          "internalType": "bytes32",
          "name": "s",
          "type": "bytes32"
        }
      ],
      "name": "permit",
      "outputs": [],
      "stateMutability": "nonpayable",
      "type": "function"
    },
    {
      "inputs": [
        {
          "internalType": "uint256",
          "name": "amount",
          "type": "uint256"
        },
        {
          "internalType": "string",
          "name": "boardingref",
          "type": "string"
        }
      ],
      "name": "redeem",
      "outputs": [],
      "stateMutability": "payable",
      "type": "function"
    },
    {
      "inputs": [],
      "name": "renounceOwnership",
      "outputs": [],
      "stateMutability": "nonpayable",
      "type": "function"
    },
    {
      "inputs": [
        {
          "internalType": "uint256",
          "name": "amount",
          "type": "uint256"
        }
      ],
      "name": "sendAndBurn",
      "outputs": [
        {
          "internalType": "bool",
          "name": "",
          "type": "bool"
        }
      ],
      "stateMutability": "nonpayable",
      "type": "function"
    },
    {
      "inputs": [],
      "name": "symbol",
      "outputs": [
        {
          "internalType": "string",
          "name": "",
          "type": "string"
        }
      ],
      "stateMutability": "view",
      "type": "function"
    },
    {
      "inputs": [],
      "name": "totalSupply",
      "outputs": [
        {
          "internalType": "uint256",
          "name": "",
          "type": "uint256"
        }
      ],
      "stateMutability": "view",
      "type": "function"
    },
    {
      "inputs": [
        {
          "internalType": "address",
          "name": "to",
          "type": "address"
        },
        {
          "internalType": "uint256",
          "name": "value",
          "type": "uint256"
        }
      ],
      "name": "transfer",
      "outputs": [
        {
          "internalType": "bool",
          "name": "",
          "type": "bool"
        }
      ],
      "stateMutability": "nonpayable",
      "type": "function"
    },
    {
      "inputs": [
        {
          "internalType": "address",
          "name": "from",
          "type": "address"
        },
        {
          "internalType": "address",
          "name": "to",
          "type": "address"
        },
        {
          "internalType": "uint256",
          "name": "value",
          "type": "uint256"
        }
      ],
      "name": "transferFrom",
      "outputs": [
        {
          "internalType": "bool",
          "name": "",
          "type": "bool"
        }
      ],
      "stateMutability": "nonpayable",
      "type": "function"
    },
    {
      "inputs": [
        {
          "internalType": "address",
          "name": "newOwner",
          "type": "address"
        }
      ],
      "name": "transferOwnership",
      "outputs": [],
      "stateMutability": "nonpayable",
      "type": "function"
    },
    {
      "stateMutability": "payable",
      "type": "receive"
    }
  ],
  "bytecode": "0x61016060405234801561001157600080fd5b50604051613af6380380613af6833981810160405281019061003391906107cc565b6040518060400160405280600d81526020017f4d6f62696c697479546f6b656e00000000000000000000000000000000000000815250806040518060400160405280600181526020017f3100000000000000000000000000000000000000000000000000000000000000815250836040518060400160405280600d81526020017f4d6f62696c697479546f6b656e000000000000000000000000000000000000008152506040518060400160405280600381526020017f4d544b0000000000000000000000000000000000000000000000000000000000815250816003908161011c9190610a49565b50806004908161012c9190610a49565b505050600073ffffffffffffffffffffffffffffffffffffffff168173ffffffffffffffffffffffffffffffffffffffff16036101a15760006040517f1e4fbdf70000000000000000000000000000000000000000000000000000000081526004016101989190610b2a565b60405180910390fd5b6101b0816102d060201b60201c565b506101c560068361039660201b90919060201c565b61012081815250506101e160078261039660201b90919060201c565b6101408181525050818051906020012060e08181525050808051906020012061010081815250504660a0818152505061021e6103e660201b60201c565b608081815250503073ffffffffffffffffffffffffffffffffffffffff1660c08173ffffffffffffffffffffffffffffffffffffffff16815250505050506102938161026e61044160201b60201c565b600a61027a9190610cb4565b629896806102889190610cff565b61044a60201b60201c565b6102ca306102a561044160201b60201c565b600a6102b19190610cb4565b624c4b406102bf9190610cff565b61044a60201b60201c565b50610f80565b6000600560009054906101000a900473ffffffffffffffffffffffffffffffffffffffff16905081600560006101000a81548173ffffffffffffffffffffffffffffffffffffffff021916908373ffffffffffffffffffffffffffffffffffffffff1602179055508173ffffffffffffffffffffffffffffffffffffffff168173ffffffffffffffffffffffffffffffffffffffff167f8be0079c531659141344cd1fd0a4f28419497f9722a3daafe3b4186f6b6457e060405160405180910390a35050565b60006020835110156103b8576103b1836104d260201b60201c565b90506103e0565b826103c88361053a60201b60201c565b60000190816103d79190610a49565b5060ff60001b90505b92915050565b60007f8b73c3c69bb8fe3d512ecc4cf759cc79239f7b179b0ffacaa9a75d522b39400f60e051610100514630604051602001610426959493929190610d69565b60405160208183030381529060405280519060200120905090565b60006012905090565b600073ffffffffffffffffffffffffffffffffffffffff168273ffffffffffffffffffffffffffffffffffffffff16036104bc5760006040517fec442f050000000000000000000000000000000000000000000000000000000081526004016104b39190610b2a565b60405180910390fd5b6104ce6000838361054460201b60201c565b5050565b600080829050601f8151111561051f57826040517f305a27a90000000000000000000000000000000000000000000000000000000081526004016105169190610e41565b60405180910390fd5b80518161052b90610e93565b60001c1760001b915050919050565b6000819050919050565b600073ffffffffffffffffffffffffffffffffffffffff168373ffffffffffffffffffffffffffffffffffffffff160361059657806002600082825461058a9190610efa565b92505081905550610669565b60008060008573ffffffffffffffffffffffffffffffffffffffff1673ffffffffffffffffffffffffffffffffffffffff16815260200190815260200160002054905081811015610622578381836040517fe450d38c00000000000000000000000000000000000000000000000000000000815260040161061993929190610f2e565b60405180910390fd5b8181036000808673ffffffffffffffffffffffffffffffffffffffff1673ffffffffffffffffffffffffffffffffffffffff16815260200190815260200160002081905550505b600073ffffffffffffffffffffffffffffffffffffffff168273ffffffffffffffffffffffffffffffffffffffff16036106b257806002600082825403925050819055506106ff565b806000808473ffffffffffffffffffffffffffffffffffffffff1673ffffffffffffffffffffffffffffffffffffffff168152602001908152602001600020600082825401925050819055505b8173ffffffffffffffffffffffffffffffffffffffff168373ffffffffffffffffffffffffffffffffffffffff167fddf252ad1be2c89b69c2b068fc378daa952ba7f163c4a11628f55a4df523b3ef8360405161075c9190610f65565b60405180910390a3505050565b600080fd5b600073ffffffffffffffffffffffffffffffffffffffff82169050919050565b60006107998261076e565b9050919050565b6107a98161078e565b81146107b457600080fd5b50565b6000815190506107c6816107a0565b92915050565b6000602082840312156107e2576107e1610769565b5b60006107f0848285016107b7565b91505092915050565b600081519050919050565b7f4e487b7100000000000000000000000000000000000000000000000000000000600052604160045260246000fd5b7f4e487b7100000000000000000000000000000000000000000000000000000000600052602260045260246000fd5b6000600282049050600182168061087a57607f821691505b60208210810361088d5761088c610833565b5b50919050565b60008190508160005260206000209050919050565b60006020601f8301049050919050565b600082821b905092915050565b6000600883026108f57fffffffffffffffffffffffffffffffffffffffffffffffffffffffffffffffff826108b8565b6108ff86836108b8565b95508019841693508086168417925050509392505050565b6000819050919050565b6000819050919050565b600061094661094161093c84610917565b610921565b610917565b9050919050565b6000819050919050565b6109608361092b565b61097461096c8261094d565b8484546108c5565b825550505050565b600090565b61098961097c565b610994818484610957565b505050565b5b818110156109b8576109ad600082610981565b60018101905061099a565b5050565b601f8211156109fd576109ce81610893565b6109d7846108a8565b810160208510156109e6578190505b6109fa6109f2856108a8565b830182610999565b50505b505050565b600082821c905092915050565b6000610a2060001984600802610a02565b1980831691505092915050565b6000610a398383610a0f565b9150826002028217905092915050565b610a52826107f9565b67ffffffffffffffff811115610a6b57610a6a610804565b5b610a758254610862565b610a808282856109bc565b600060209050601f831160018114610ab35760008415610aa1578287015190505b610aab8582610a2d565b865550610b13565b601f198416610ac186610893565b60005b82811015610ae957848901518255600182019150602085019450602081019050610ac4565b86831015610b065784890151610b02601f891682610a0f565b8355505b6001600288020188555050505b505050505050565b610b248161078e565b82525050565b6000602082019050610b3f6000830184610b1b565b92915050565b7f4e487b7100000000000000000000000000000000000000000000000000000000600052601160045260246000fd5b60008160011c9050919050565b6000808291508390505b6001851115610bcb57808604811115610ba757610ba6610b45565b5b6001851615610bb65780820291505b8081029050610bc485610b74565b9450610b8b565b94509492505050565b600082610be45760019050610ca0565b81610bf25760009050610ca0565b8160018114610c085760028114610c1257610c41565b6001915050610ca0565b60ff841115610c2457610c23610b45565b5b8360020a915084821115610c3b57610c3a610b45565b5b50610ca0565b5060208310610133831016604e8410600b8410161715610c765782820a905083811115610c7157610c70610b45565b5b610ca0565b610c838484846001610b81565b92509050818404811115610c9a57610c99610b45565b5b81810290505b9392505050565b600060ff82169050919050565b6000610cbf82610917565b9150610cca83610ca7565b9250610cf77fffffffffffffffffffffffffffffffffffffffffffffffffffffffffffffffff8484610bd4565b905092915050565b6000610d0a82610917565b9150610d1583610917565b9250828202610d2381610917565b91508282048414831517610d3a57610d39610b45565b5b5092915050565b6000819050919050565b610d5481610d41565b82525050565b610d6381610917565b82525050565b600060a082019050610d7e6000830188610d4b565b610d8b6020830187610d4b565b610d986040830186610d4b565b610da56060830185610d5a565b610db26080830184610b1b565b9695505050505050565b600082825260208201905092915050565b60005b83811015610deb578082015181840152602081019050610dd0565b60008484015250505050565b6000601f19601f8301169050919050565b6000610e13826107f9565b610e1d8185610dbc565b9350610e2d818560208601610dcd565b610e3681610df7565b840191505092915050565b60006020820190508181036000830152610e5b8184610e08565b905092915050565b600081519050919050565b6000819050602082019050919050565b6000610e8a8251610d41565b80915050919050565b6000610e9e82610e63565b82610ea884610e6e565b9050610eb381610e7e565b92506020821015610ef357610eee7fffffffffffffffffffffffffffffffffffffffffffffffffffffffffffffffff836020036008026108b8565b831692505b5050919050565b6000610f0582610917565b9150610f1083610917565b9250828201905080821115610f2857610f27610b45565b5b92915050565b6000606082019050610f436000830186610b1b565b610f506020830185610d5a565b610f5d6040830184610d5a565b949350505050565b6000602082019050610f7a6000830184610d5a565b92915050565b60805160a05160c05160e051610100516101205161014051612b1c610fda600039600061153d0152600061150201526000611a5201526000611a310152600061123301526000611289015260006112b20152612b1c6000f3fe60806040526004361061016a5760003560e01c8063715018a6116100d1578063a9059cbb1161008a578063d59f084a11610064578063d59f084a146105ce578063dd62ed3e1461060b578063f2fde38b14610648578063f8b2cb4f14610671576101aa565b8063a9059cbb1461052b578063c38e0b1914610568578063d505accf146105a5576101aa565b8063715018a61461042757806379cc67901461043e5780637ecebe001461046757806384b0196e146104a45780638da5cb5b146104d557806395d89b4114610500576101aa565b80633519a2f8116101235780633519a2f8146103075780633644e5151461033057806340c10f191461035b57806342966c681461038457806343fb8b2a146103ad57806370a08231146103ea576101aa565b806306fdde03146101f0578063095ea7b31461021b57806318160ddd1461025857806323b872dd1461028357806324b76fd5146102c0578063313ce567146102dc576101aa565b366101aa577f1d76c7e5736b9b335988489baea5b96ec803f8f1194842fe5ce3a6ec85e79b5633346040516101a0929190611f09565b60405180910390a1005b3480156101b657600080fd5b507fcc97ff3d49208ba08dc7ada5cf9e88e59e047be7d363118838f7af1233c49c43336040516101e69190611f32565b60405180910390a1005b3480156101fc57600080fd5b506102056106ae565b6040516102129190611fdd565b60405180910390f35b34801561022757600080fd5b50610242600480360381019061023d919061206b565b610740565b60405161024f91906120c6565b60405180910390f35b34801561026457600080fd5b5061026d610763565b60405161027a91906120e1565b60405180910390f35b34801561028f57600080fd5b506102aa60048036038101906102a591906120fc565b61076d565b6040516102b791906120c6565b60405180910390f35b6102da60048036038101906102d59190612284565b61079c565b005b3480156102e857600080fd5b506102f16109a5565b6040516102fe91906122fc565b60405180910390f35b34801561031357600080fd5b5061032e60048036038101906103299190612317565b6109ae565b005b34801561033c57600080fd5b506103456109cb565b604051610352919061235d565b60405180910390f35b34801561036757600080fd5b50610382600480360381019061037d919061206b565b6109da565b005b34801561039057600080fd5b506103ab60048036038101906103a69190612317565b6109f0565b005b3480156103b957600080fd5b506103d460048036038101906103cf9190612378565b610a04565b6040516103e191906120c6565b60405180910390f35b3480156103f657600080fd5b50610411600480360381019061040c91906123d4565b610a49565b60405161041e91906120e1565b60405180910390f35b34801561043357600080fd5b5061043c610a91565b005b34801561044a57600080fd5b506104656004803603810190610460919061206b565b610aa5565b005b34801561047357600080fd5b5061048e600480360381019061048991906123d4565b610ac5565b60405161049b91906120e1565b60405180910390f35b3480156104b057600080fd5b506104b9610ad7565b6040516104cc97969594939291906124fa565b60405180910390f35b3480156104e157600080fd5b506104ea610b81565b6040516104f79190611f32565b60405180910390f35b34801561050c57600080fd5b50610515610bab565b6040516105229190611fdd565b60405180910390f35b34801561053757600080fd5b50610552600480360381019061054d919061206b565b610c3d565b60405161055f91906120c6565b60405180910390f35b34801561057457600080fd5b5061058f600480360381019061058a9190612378565b610c60565b60405161059c91906120c6565b60405180910390f35b3480156105b157600080fd5b506105cc60048036038101906105c791906125d6565b610d17565b005b3480156105da57600080fd5b506105f560048036038101906105f09190612317565b610e5f565b60405161060291906120c6565b60405180910390f35b34801561061757600080fd5b50610632600480360381019061062d9190612678565b610ee6565b60405161063f91906120e1565b60405180910390f35b34801561065457600080fd5b5061066f600480360381019061066a91906123d4565b610f6d565b005b34801561067d57600080fd5b50610698600480360381019061069391906123d4565b610ff3565b6040516106a591906120e1565b60405180910390f35b6060600380546106bd906126e7565b80601f01602080910402602001604051908101604052809291908181526020018280546106e9906126e7565b80156107365780601f1061070b57610100808354040283529160200191610736565b820191906000526020600020905b81548152906001019060200180831161071957829003601f168201915b5050505050905090565b60008061074b611005565b905061075881858561100d565b600191505092915050565b6000600254905090565b600080610778611005565b905061078585828561101f565b6107908585856110b4565b60019150509392505050565b60068151146107e0576040517f08c379a00000000000000000000000000000000000000000000000000000000081526004016107d79061278a565b60405180910390fd5b600960003373ffffffffffffffffffffffffffffffffffffffff1673ffffffffffffffffffffffffffffffffffffffff1681526020019081526020016000208160405161082d91906127e6565b908152602001604051809103902060009054906101000a900460ff1615610889576040517f08c379a000000000000000000000000000000000000000000000000000000000815260040161088090612849565b60405180910390fd5b8161089330610a49565b10156108d4576040517f08c379a00000000000000000000000000000000000000000000000000000000081526004016108cb906128db565b60405180910390fd5b6001600960003373ffffffffffffffffffffffffffffffffffffffff1673ffffffffffffffffffffffffffffffffffffffff1681526020019081526020016000208260405161092391906127e6565b908152602001604051809103902060006101000a81548160ff0219169083151502179055506109533033846110b4565b3373ffffffffffffffffffffffffffffffffffffffff167f4896181ff8f4543cc00db9fe9b6fb7e6f032b7eb772c72ab1ec1b4d2e03b93698360405161099991906120e1565b60405180910390a25050565b60006012905090565b6109b66111a8565b6109c86109c1610b81565b30836110b4565b50565b60006109d561122f565b905090565b6109e26111a8565b6109ec82826112e6565b5050565b610a016109fb611005565b82611368565b50565b6009602052816000526040600020818051602081018201805184825260208301602085012081835280955050505050506000915091509054906101000a900460ff1681565b60008060008373ffffffffffffffffffffffffffffffffffffffff1673ffffffffffffffffffffffffffffffffffffffff168152602001908152602001600020549050919050565b610a996111a8565b610aa360006113ea565b565b610ab782610ab1611005565b8361101f565b610ac18282611368565b5050565b6000610ad0826114b0565b9050919050565b600060608060008060006060610aeb6114f9565b610af3611534565b46306000801b600067ffffffffffffffff811115610b1457610b13612159565b5b604051908082528060200260200182016040528015610b425781602001602082028036833780820191505090505b507f0f00000000000000000000000000000000000000000000000000000000000000959493929190965096509650965096509650965090919293949596565b6000600560009054906101000a900473ffffffffffffffffffffffffffffffffffffffff16905090565b606060048054610bba906126e7565b80601f0160208091040260200160405190810160405280929190818152602001828054610be6906126e7565b8015610c335780601f10610c0857610100808354040283529160200191610c33565b820191906000526020600020905b815481529060010190602001808311610c1657829003601f168201915b5050505050905090565b600080610c48611005565b9050610c558185856110b4565b600191505092915050565b60006006825114610ca6576040517f08c379a0000000000000000000000000000000000000000000000000000000008152600401610c9d9061278a565b60405180910390fd5b600960008473ffffffffffffffffffffffffffffffffffffffff1673ffffffffffffffffffffffffffffffffffffffff16815260200190815260200160002082604051610cf391906127e6565b908152602001604051809103902060009054906101000a900460ff16905092915050565b83421115610d5c57836040517f62791302000000000000000000000000000000000000000000000000000000008152600401610d5391906120e1565b60405180910390fd5b60007f6e71edae12b1b97f4d1f60370fef10105fa2faae0126114a169c64845d6126c9888888610d8b8c61156f565b89604051602001610da1969594939291906128fb565b6040516020818303038152906040528051906020012090506000610dc4826115c6565b90506000610dd4828787876115e0565b90508973ffffffffffffffffffffffffffffffffffffffff168173ffffffffffffffffffffffffffffffffffffffff1614610e4857808a6040517f4b800e46000000000000000000000000000000000000000000000000000000008152600401610e3f92919061295c565b60405180910390fd5b610e538a8a8a61100d565b50505050505050505050565b600080821480610e76575081610e7433610a49565b105b15610e845760009050610ee1565b610e8e3383611368565b3373ffffffffffffffffffffffffffffffffffffffff167ffd38818f5291bf0bb3a2a48aadc06ba8757865d1dabd804585338aab3009dcb683604051610ed491906120e1565b60405180910390a2600190505b919050565b6000600160008473ffffffffffffffffffffffffffffffffffffffff1673ffffffffffffffffffffffffffffffffffffffff16815260200190815260200160002060008373ffffffffffffffffffffffffffffffffffffffff1673ffffffffffffffffffffffffffffffffffffffff16815260200190815260200160002054905092915050565b610f756111a8565b600073ffffffffffffffffffffffffffffffffffffffff168173ffffffffffffffffffffffffffffffffffffffff1603610fe75760006040517f1e4fbdf7000000000000000000000000000000000000000000000000000000008152600401610fde9190611f32565b60405180910390fd5b610ff0816113ea565b50565b6000610ffe82610a49565b9050919050565b600033905090565b61101a8383836001611610565b505050565b600061102b8484610ee6565b90507fffffffffffffffffffffffffffffffffffffffffffffffffffffffffffffffff8110156110ae578181101561109e578281836040517ffb8f41b200000000000000000000000000000000000000000000000000000000815260040161109593929190612985565b60405180910390fd5b6110ad84848484036000611610565b5b50505050565b600073ffffffffffffffffffffffffffffffffffffffff168373ffffffffffffffffffffffffffffffffffffffff16036111265760006040517f96c6fd1e00000000000000000000000000000000000000000000000000000000815260040161111d9190611f32565b60405180910390fd5b600073ffffffffffffffffffffffffffffffffffffffff168273ffffffffffffffffffffffffffffffffffffffff16036111985760006040517fec442f0500000000000000000000000000000000000000000000000000000000815260040161118f9190611f32565b60405180910390fd5b6111a38383836117e7565b505050565b6111b0611005565b73ffffffffffffffffffffffffffffffffffffffff166111ce610b81565b73ffffffffffffffffffffffffffffffffffffffff161461122d576111f1611005565b6040517f118cdaa70000000000000000000000000000000000000000000000000000000081526004016112249190611f32565b60405180910390fd5b565b60007f000000000000000000000000000000000000000000000000000000000000000073ffffffffffffffffffffffffffffffffffffffff163073ffffffffffffffffffffffffffffffffffffffff161480156112ab57507f000000000000000000000000000000000000000000000000000000000000000046145b156112d8577f000000000000000000000000000000000000000000000000000000000000000090506112e3565b6112e0611a0c565b90505b90565b600073ffffffffffffffffffffffffffffffffffffffff168273ffffffffffffffffffffffffffffffffffffffff16036113585760006040517fec442f0500000000000000000000000000000000000000000000000000000000815260040161134f9190611f32565b60405180910390fd5b611364600083836117e7565b5050565b600073ffffffffffffffffffffffffffffffffffffffff168273ffffffffffffffffffffffffffffffffffffffff16036113da5760006040517f96c6fd1e0000000000000000000000000000000000000000000000000000000081526004016113d19190611f32565b60405180910390fd5b6113e6826000836117e7565b5050565b6000600560009054906101000a900473ffffffffffffffffffffffffffffffffffffffff16905081600560006101000a81548173ffffffffffffffffffffffffffffffffffffffff021916908373ffffffffffffffffffffffffffffffffffffffff1602179055508173ffffffffffffffffffffffffffffffffffffffff168173ffffffffffffffffffffffffffffffffffffffff167f8be0079c531659141344cd1fd0a4f28419497f9722a3daafe3b4186f6b6457e060405160405180910390a35050565b6000600860008373ffffffffffffffffffffffffffffffffffffffff1673ffffffffffffffffffffffffffffffffffffffff168152602001908152602001600020549050919050565b606061152f60067f0000000000000000000000000000000000000000000000000000000000000000611aa290919063ffffffff16565b905090565b606061156a60077f0000000000000000000000000000000000000000000000000000000000000000611aa290919063ffffffff16565b905090565b6000600860008373ffffffffffffffffffffffffffffffffffffffff1673ffffffffffffffffffffffffffffffffffffffff1681526020019081526020016000206000815480929190600101919050559050919050565b60006115d96115d361122f565b83611b52565b9050919050565b6000806000806115f288888888611b93565b9250925092506116028282611c87565b829350505050949350505050565b600073ffffffffffffffffffffffffffffffffffffffff168473ffffffffffffffffffffffffffffffffffffffff16036116825760006040517fe602df050000000000000000000000000000000000000000000000000000000081526004016116799190611f32565b60405180910390fd5b600073ffffffffffffffffffffffffffffffffffffffff168373ffffffffffffffffffffffffffffffffffffffff16036116f45760006040517f94280d620000000000000000000000000000000000000000000000000000000081526004016116eb9190611f32565b60405180910390fd5b81600160008673ffffffffffffffffffffffffffffffffffffffff1673ffffffffffffffffffffffffffffffffffffffff16815260200190815260200160002060008573ffffffffffffffffffffffffffffffffffffffff1673ffffffffffffffffffffffffffffffffffffffff1681526020019081526020016000208190555080156117e1578273ffffffffffffffffffffffffffffffffffffffff168473ffffffffffffffffffffffffffffffffffffffff167f8c5be1e5ebec7d5bd14f71427d1e84f3dd0314c0f7b2291e5b200ac8c7c3b925846040516117d891906120e1565b60405180910390a35b50505050565b600073ffffffffffffffffffffffffffffffffffffffff168373ffffffffffffffffffffffffffffffffffffffff160361183957806002600082825461182d91906129eb565b9250508190555061190c565b60008060008573ffffffffffffffffffffffffffffffffffffffff1673ffffffffffffffffffffffffffffffffffffffff168152602001908152602001600020549050818110156118c5578381836040517fe450d38c0000000000000000000000000000000000000000000000000000000081526004016118bc93929190612985565b60405180910390fd5b8181036000808673ffffffffffffffffffffffffffffffffffffffff1673ffffffffffffffffffffffffffffffffffffffff16815260200190815260200160002081905550505b600073ffffffffffffffffffffffffffffffffffffffff168273ffffffffffffffffffffffffffffffffffffffff160361195557806002600082825403925050819055506119a2565b806000808473ffffffffffffffffffffffffffffffffffffffff1673ffffffffffffffffffffffffffffffffffffffff168152602001908152602001600020600082825401925050819055505b8173ffffffffffffffffffffffffffffffffffffffff168373ffffffffffffffffffffffffffffffffffffffff167fddf252ad1be2c89b69c2b068fc378daa952ba7f163c4a11628f55a4df523b3ef836040516119ff91906120e1565b60405180910390a3505050565b60007f8b73c3c69bb8fe3d512ecc4cf759cc79239f7b179b0ffacaa9a75d522b39400f7f00000000000000000000000000000000000000000000000000000000000000007f00000000000000000000000000000000000000000000000000000000000000004630604051602001611a87959493929190612a1f565b60405160208183030381529060405280519060200120905090565b606060ff60001b8314611abf57611ab883611deb565b9050611b4c565b818054611acb906126e7565b80601f0160208091040260200160405190810160405280929190818152602001828054611af7906126e7565b8015611b445780601f10611b1957610100808354040283529160200191611b44565b820191906000526020600020905b815481529060010190602001808311611b2757829003601f168201915b505050505090505b92915050565b60006040517f190100000000000000000000000000000000000000000000000000000000000081528360028201528260228201526042812091505092915050565b60008060007f7fffffffffffffffffffffffffffffff5d576e7357a4501ddfe92f46681b20a08460001c1115611bd3576000600385925092509250611c7d565b600060018888888860405160008152602001604052604051611bf89493929190612a72565b6020604051602081039080840390855afa158015611c1a573d6000803e3d6000fd5b505050602060405103519050600073ffffffffffffffffffffffffffffffffffffffff168173ffffffffffffffffffffffffffffffffffffffff1603611c6e57600060016000801b93509350935050611c7d565b8060008060001b935093509350505b9450945094915050565b60006003811115611c9b57611c9a612ab7565b5b826003811115611cae57611cad612ab7565b5b0315611de75760016003811115611cc857611cc7612ab7565b5b826003811115611cdb57611cda612ab7565b5b03611d12576040517ff645eedf00000000000000000000000000000000000000000000000000000000815260040160405180910390fd5b60026003811115611d2657611d25612ab7565b5b826003811115611d3957611d38612ab7565b5b03611d7e578060001c6040517ffce698f7000000000000000000000000000000000000000000000000000000008152600401611d7591906120e1565b60405180910390fd5b600380811115611d9157611d90612ab7565b5b826003811115611da457611da3612ab7565b5b03611de657806040517fd78bce0c000000000000000000000000000000000000000000000000000000008152600401611ddd919061235d565b60405180910390fd5b5b5050565b60606000611df883611e5f565b90506000602067ffffffffffffffff811115611e1757611e16612159565b5b6040519080825280601f01601f191660200182016040528015611e495781602001600182028036833780820191505090505b5090508181528360208201528092505050919050565b60008060ff8360001c169050601f811115611ea6576040517fb3512b0c00000000000000000000000000000000000000000000000000000000815260040160405180910390fd5b80915050919050565b600073ffffffffffffffffffffffffffffffffffffffff82169050919050565b6000611eda82611eaf565b9050919050565b611eea81611ecf565b82525050565b6000819050919050565b611f0381611ef0565b82525050565b6000604082019050611f1e6000830185611ee1565b611f2b6020830184611efa565b9392505050565b6000602082019050611f476000830184611ee1565b92915050565b600081519050919050565b600082825260208201905092915050565b60005b83811015611f87578082015181840152602081019050611f6c565b60008484015250505050565b6000601f19601f8301169050919050565b6000611faf82611f4d565b611fb98185611f58565b9350611fc9818560208601611f69565b611fd281611f93565b840191505092915050565b60006020820190508181036000830152611ff78184611fa4565b905092915050565b6000604051905090565b600080fd5b600080fd5b61201c81611ecf565b811461202757600080fd5b50565b60008135905061203981612013565b92915050565b61204881611ef0565b811461205357600080fd5b50565b6000813590506120658161203f565b92915050565b6000806040838503121561208257612081612009565b5b60006120908582860161202a565b92505060206120a185828601612056565b9150509250929050565b60008115159050919050565b6120c0816120ab565b82525050565b60006020820190506120db60008301846120b7565b92915050565b60006020820190506120f66000830184611efa565b92915050565b60008060006060848603121561211557612114612009565b5b60006121238682870161202a565b93505060206121348682870161202a565b925050604061214586828701612056565b9150509250925092565b600080fd5b600080fd5b7f4e487b7100000000000000000000000000000000000000000000000000000000600052604160045260246000fd5b61219182611f93565b810181811067ffffffffffffffff821117156121b0576121af612159565b5b80604052505050565b60006121c3611fff565b90506121cf8282612188565b919050565b600067ffffffffffffffff8211156121ef576121ee612159565b5b6121f882611f93565b9050602081019050919050565b82818337600083830152505050565b6000612227612222846121d4565b6121b9565b90508281526020810184848401111561224357612242612154565b5b61224e848285612205565b509392505050565b600082601f83011261226b5761226a61214f565b5b813561227b848260208601612214565b91505092915050565b6000806040838503121561229b5761229a612009565b5b60006122a985828601612056565b925050602083013567ffffffffffffffff8111156122ca576122c961200e565b5b6122d685828601612256565b9150509250929050565b600060ff82169050919050565b6122f6816122e0565b82525050565b600060208201905061231160008301846122ed565b92915050565b60006020828403121561232d5761232c612009565b5b600061233b84828501612056565b91505092915050565b6000819050919050565b61235781612344565b82525050565b6000602082019050612372600083018461234e565b92915050565b6000806040838503121561238f5761238e612009565b5b600061239d8582860161202a565b925050602083013567ffffffffffffffff8111156123be576123bd61200e565b5b6123ca85828601612256565b9150509250929050565b6000602082840312156123ea576123e9612009565b5b60006123f88482850161202a565b91505092915050565b60007fff0000000000000000000000000000000000000000000000000000000000000082169050919050565b61243681612401565b82525050565b600081519050919050565b600082825260208201905092915050565b6000819050602082019050919050565b61247181611ef0565b82525050565b60006124838383612468565b60208301905092915050565b6000602082019050919050565b60006124a78261243c565b6124b18185612447565b93506124bc83612458565b8060005b838110156124ed5781516124d48882612477565b97506124df8361248f565b9250506001810190506124c0565b5085935050505092915050565b600060e08201905061250f600083018a61242d565b81810360208301526125218189611fa4565b905081810360408301526125358188611fa4565b90506125446060830187611efa565b6125516080830186611ee1565b61255e60a083018561234e565b81810360c0830152612570818461249c565b905098975050505050505050565b612587816122e0565b811461259257600080fd5b50565b6000813590506125a48161257e565b92915050565b6125b381612344565b81146125be57600080fd5b50565b6000813590506125d0816125aa565b92915050565b600080600080600080600060e0888a0312156125f5576125f4612009565b5b60006126038a828b0161202a565b97505060206126148a828b0161202a565b96505060406126258a828b01612056565b95505060606126368a828b01612056565b94505060806126478a828b01612595565b93505060a06126588a828b016125c1565b92505060c06126698a828b016125c1565b91505092959891949750929550565b6000806040838503121561268f5761268e612009565b5b600061269d8582860161202a565b92505060206126ae8582860161202a565b9150509250929050565b7f4e487b7100000000000000000000000000000000000000000000000000000000600052602260045260246000fd5b600060028204905060018216806126ff57607f821691505b602082108103612712576127116126b8565b5b50919050565b7f5265666572656e6365206d75737420686176652073697820636861726163746560008201527f7273000000000000000000000000000000000000000000000000000000000000602082015250565b6000612774602283611f58565b915061277f82612718565b604082019050919050565b600060208201905081810360008301526127a381612767565b9050919050565b600081905092915050565b60006127c082611f4d565b6127ca81856127aa565b93506127da818560208601611f69565b80840191505092915050565b60006127f282846127b5565b915081905092915050565b7f546f6b656e20616c726561647920636c61696d65640000000000000000000000600082015250565b6000612833601583611f58565b915061283e826127fd565b602082019050919050565b6000602082019050818103600083015261286281612826565b9050919050565b7f4d6f62696c697479546f6b656e3a20496e73756666696369656e7420636f6e7460008201527f726163742062616c616e63650000000000000000000000000000000000000000602082015250565b60006128c5602c83611f58565b91506128d082612869565b604082019050919050565b600060208201905081810360008301526128f4816128b8565b9050919050565b600060c082019050612910600083018961234e565b61291d6020830188611ee1565b61292a6040830187611ee1565b6129376060830186611efa565b6129446080830185611efa565b61295160a0830184611efa565b979650505050505050565b60006040820190506129716000830185611ee1565b61297e6020830184611ee1565b9392505050565b600060608201905061299a6000830186611ee1565b6129a76020830185611efa565b6129b46040830184611efa565b949350505050565b7f4e487b7100000000000000000000000000000000000000000000000000000000600052601160045260246000fd5b60006129f682611ef0565b9150612a0183611ef0565b9250828201905080821115612a1957612a186129bc565b5b92915050565b600060a082019050612a34600083018861234e565b612a41602083018761234e565b612a4e604083018661234e565b612a5b6060830185611efa565b612a686080830184611ee1565b9695505050505050565b6000608082019050612a87600083018761234e565b612a9460208301866122ed565b612aa1604083018561234e565b612aae606083018461234e565b95945050505050565b7f4e487b7100000000000000000000000000000000000000000000000000000000600052602160045260246000fdfea2646970667358221220fdb85d12aee0d8f7307e7bc0953873b71130020f13e436e0c61e82c4f795b1d564736f6c634300081c0033",
  "linkReferences": {},
  "deployedLinkReferences": {}
}