{
  "_format": "hh-sol-artifact-1",
  "contractName": "MobilityToken",
  "sourceName": "contracts/MobilityToken.sol",
  "abi": [
    {
      "inputs": [],
      "stateMutability": "nonpayable",
      "type": "constructor"
    },
    {
      "inputs": [],
      "name": "ECDSAInvalidSignature",
      "type": "error"
    },
    {
      "inputs": [
        {
          "internalType": "uint256",
          "name": "length",
          "type": "uint256"
        }
      ],
      "name": "ECDSAInvalidSignatureLength",
      "type": "error"
    },
    {
      "inputs": [
        {
          "internalType": "bytes32",
          "name": "s",
          "type": "bytes32"
        }
      ],
      "name": "ECDSAInvalidSignatureS",
      "type": "error"
    },
    {
      "inputs": [
        {
          "internalType": "address",
          "name": "spender",
          "type": "address"
        },
        {
          "internalType": "uint256",
          "name": "allowance",
          "type": "uint256"
        },
        {
          "internalType": "uint256",
          "name": "needed",
          "type": "uint256"
        }
      ],
      "name": "ERC20InsufficientAllowance",
      "type": "error"
    },
    {
      "inputs": [
        {
          "internalType": "address",
          "name": "sender",
          "type": "address"
        },
        {
          "internalType": "uint256",
          "name": "balance",
          "type": "uint256"
        },
        {
          "internalType": "uint256",
          "name": "needed",
          "type": "uint256"
        }
      ],
      "name": "ERC20InsufficientBalance",
      "type": "error"
    },
    {
      "inputs": [
        {
          "internalType": "address",
          "name": "approver",
          "type": "address"
        }
      ],
      "name": "ERC20InvalidApprover",
      "type": "error"
    },
    {
      "inputs": [
        {
          "internalType": "address",
          "name": "receiver",
          "type": "address"
        }
      ],
      "name": "ERC20InvalidReceiver",
      "type": "error"
    },
    {
      "inputs": [
        {
          "internalType": "address",
          "name": "sender",
          "type": "address"
        }
      ],
      "name": "ERC20InvalidSender",
      "type": "error"
    },
    {
      "inputs": [
        {
          "internalType": "address",
          "name": "spender",
          "type": "address"
        }
      ],
      "name": "ERC20InvalidSpender",
      "type": "error"
    },
    {
      "inputs": [
        {
          "internalType": "uint256",
          "name": "deadline",
          "type": "uint256"
        }
      ],
      "name": "ERC2612ExpiredSignature",
      "type": "error"
    },
    {
      "inputs": [
        {
          "internalType": "address",
          "name": "signer",
          "type": "address"
        },
        {
          "internalType": "address",
          "name": "owner",
          "type": "address"
        }
      ],
      "name": "ERC2612InvalidSigner",
      "type": "error"
    },
    {
      "inputs": [
        {
          "internalType": "address",
          "name": "account",
          "type": "address"
        },
        {
          "internalType": "uint256",
          "name": "currentNonce",
          "type": "uint256"
        }
      ],
      "name": "InvalidAccountNonce",
      "type": "error"
    },
    {
      "inputs": [],
      "name": "InvalidShortString",
      "type": "error"
    },
    {
      "inputs": [
        {
          "internalType": "address",
          "name": "owner",
          "type": "address"
        }
      ],
      "name": "OwnableInvalidOwner",
      "type": "error"
    },
    {
      "inputs": [
        {
          "internalType": "address",
          "name": "account",
          "type": "address"
        }
      ],
      "name": "OwnableUnauthorizedAccount",
      "type": "error"
    },
    {
      "inputs": [
        {
          "internalType": "string",
          "name": "str",
          "type": "string"
        }
      ],
      "name": "StringTooLong",
      "type": "error"
    },
    {
      "anonymous": false,
      "inputs": [
        {
          "indexed": true,
          "internalType": "address",
          "name": "owner",
          "type": "address"
        },
        {
          "indexed": true,
          "internalType": "address",
          "name": "spender",
          "type": "address"
        },
        {
          "indexed": false,
          "internalType": "uint256",
          "name": "value",
          "type": "uint256"
        }
      ],
      "name": "Approval",
      "type": "event"
    },
    {
      "anonymous": false,
      "inputs": [],
      "name": "EIP712DomainChanged",
      "type": "event"
    },
    {
      "anonymous": false,
      "inputs": [
        {
          "indexed": true,
          "internalType": "address",
          "name": "previousOwner",
          "type": "address"
        },
        {
          "indexed": true,
          "internalType": "address",
          "name": "newOwner",
          "type": "address"
        }
      ],
      "name": "OwnershipTransferred",
      "type": "event"
    },
    {
      "anonymous": false,
      "inputs": [
        {
          "indexed": true,
          "internalType": "address",
          "name": "user",
          "type": "address"
        },
        {
          "indexed": false,
          "internalType": "uint256",
          "name": "amount",
          "type": "uint256"
        }
      ],
      "name": "Redeemed",
      "type": "event"
    },
    {
      "anonymous": false,
      "inputs": [
        {
          "indexed": true,
          "internalType": "address",
          "name": "burner",
          "type": "address"
        },
        {
          "indexed": false,
          "internalType": "uint256",
          "name": "amount",
          "type": "uint256"
        }
      ],
      "name": "TokensBurned",
      "type": "event"
    },
    {
      "anonymous": false,
      "inputs": [
        {
          "indexed": true,
          "internalType": "address",
          "name": "from",
          "type": "address"
        },
        {
          "indexed": true,
          "internalType": "address",
          "name": "to",
          "type": "address"
        },
        {
          "indexed": false,
          "internalType": "uint256",
          "name": "value",
          "type": "uint256"
        }
      ],
      "name": "Transfer",
      "type": "event"
    },
    {
      "inputs": [],
      "name": "DOMAIN_SEPARATOR",
      "outputs": [
        {
          "internalType": "bytes32",
          "name": "",
          "type": "bytes32"
        }
      ],
      "stateMutability": "view",
      "type": "function"
    },
    {
      "inputs": [
        {
          "internalType": "address",
          "name": "owner",
          "type": "address"
        },
        {
          "internalType": "address",
          "name": "spender",
          "type": "address"
        }
      ],
      "name": "allowance",
      "outputs": [
        {
          "internalType": "uint256",
          "name": "",
          "type": "uint256"
        }
      ],
      "stateMutability": "view",
      "type": "function"
    },
    {
      "inputs": [
        {
          "internalType": "address",
          "name": "spender",
          "type": "address"
        },
        {
          "internalType": "uint256",
          "name": "value",
          "type": "uint256"
        }
      ],
      "name": "approve",
      "outputs": [
        {
          "internalType": "bool",
          "name": "",
          "type": "bool"
        }
      ],
      "stateMutability": "nonpayable",
      "type": "function"
    },
    {
      "inputs": [
        {
          "internalType": "address",
          "name": "account",
          "type": "address"
        }
      ],
      "name": "balanceOf",
      "outputs": [
        {
          "internalType": "uint256",
          "name": "",
          "type": "uint256"
        }
      ],
      "stateMutability": "view",
      "type": "function"
    },
    {
      "inputs": [
        {
          "internalType": "uint256",
          "name": "value",
          "type": "uint256"
        }
      ],
      "name": "burn",
      "outputs": [],
      "stateMutability": "nonpayable",
      "type": "function"
    },
    {
      "inputs": [
        {
          "internalType": "address",
          "name": "account",
          "type": "address"
        },
        {
          "internalType": "uint256",
          "name": "value",
          "type": "uint256"
        }
      ],
      "name": "burnFrom",
      "outputs": [],
      "stateMutability": "nonpayable",
      "type": "function"
    },
    {
      "inputs": [],
      "name": "decimals",
      "outputs": [
        {
          "internalType": "uint8",
          "name": "",
          "type": "uint8"
        }
      ],
      "stateMutability": "view",
      "type": "function"
    },
    {
      "inputs": [],
      "name": "eip712Domain",
      "outputs": [
        {
          "internalType": "bytes1",
          "name": "fields",
          "type": "bytes1"
        },
        {
          "internalType": "string",
          "name": "name",
          "type": "string"
        },
        {
          "internalType": "string",
          "name": "version",
          "type": "string"
        },
        {
          "internalType": "uint256",
          "name": "chainId",
          "type": "uint256"
        },
        {
          "internalType": "address",
          "name": "verifyingContract",
          "type": "address"
        },
        {
          "internalType": "bytes32",
          "name": "salt",
          "type": "bytes32"
        },
        {
          "internalType": "uint256[]",
          "name": "extensions",
          "type": "uint256[]"
        }
      ],
      "stateMutability": "view",
      "type": "function"
    },
    {
      "inputs": [
        {
          "internalType": "uint256",
          "name": "amount",
          "type": "uint256"
        }
      ],
      "name": "fundContract",
      "outputs": [],
      "stateMutability": "nonpayable",
      "type": "function"
    },
    {
      "inputs": [
        {
          "internalType": "address",
          "name": "to",
          "type": "address"
        },
        {
          "internalType": "uint256",
          "name": "amount",
          "type": "uint256"
        }
      ],
      "name": "mint",
      "outputs": [],
      "stateMutability": "nonpayable",
      "type": "function"
    },
    {
      "inputs": [],
      "name": "name",
      "outputs": [
        {
          "internalType": "string",
          "name": "",
          "type": "string"
        }
      ],
      "stateMutability": "view",
      "type": "function"
    },
    {
      "inputs": [
        {
          "internalType": "address",
          "name": "owner",
          "type": "address"
        }
      ],
      "name": "nonces",
      "outputs": [
        {
          "internalType": "uint256",
          "name": "",
          "type": "uint256"
        }
      ],
      "stateMutability": "view",
      "type": "function"
    },
    {
      "inputs": [],
      "name": "owner",
      "outputs": [
        {
          "internalType": "address",
          "name": "",
          "type": "address"
        }
      ],
      "stateMutability": "view",
      "type": "function"
    },
    {
      "inputs": [
        {
          "internalType": "address",
          "name": "owner",
          "type": "address"
        },
        {
          "internalType": "address",
          "name": "spender",
          "type": "address"
        },
        {
          "internalType": "uint256",
          "name": "value",
          "type": "uint256"
        },
        {
          "internalType": "uint256",
          "name": "deadline",
          "type": "uint256"
        },
        {
          "internalType": "uint8",
          "name": "v",
          "type": "uint8"
        },
        {
          "internalType": "bytes32",
          "name": "r",
          "type": "bytes32"
        },
        {
          "internalType": "bytes32",
          "name": "s",
          "type": "bytes32"
        }
      ],
      "name": "permit",
      "outputs": [],
      "stateMutability": "nonpayable",
      "type": "function"
    },
    {
      "inputs": [
        {
          "internalType": "uint256",
          "name": "amount",
          "type": "uint256"
        }
      ],
      "name": "redeem",
      "outputs": [],
      "stateMutability": "nonpayable",
      "type": "function"
    },
    {
      "inputs": [],
      "name": "renounceOwnership",
      "outputs": [],
      "stateMutability": "nonpayable",
      "type": "function"
    },
    {
      "inputs": [
        {
          "internalType": "uint256",
          "name": "amount",
          "type": "uint256"
        }
      ],
      "name": "sendAndBurn",
      "outputs": [
        {
          "internalType": "bool",
          "name": "",
          "type": "bool"
        }
      ],
      "stateMutability": "nonpayable",
      "type": "function"
    },
    {
      "inputs": [],
      "name": "symbol",
      "outputs": [
        {
          "internalType": "string",
          "name": "",
          "type": "string"
        }
      ],
      "stateMutability": "view",
      "type": "function"
    },
    {
      "inputs": [],
      "name": "totalSupply",
      "outputs": [
        {
          "internalType": "uint256",
          "name": "",
          "type": "uint256"
        }
      ],
      "stateMutability": "view",
      "type": "function"
    },
    {
      "inputs": [
        {
          "internalType": "address",
          "name": "to",
          "type": "address"
        },
        {
          "internalType": "uint256",
          "name": "value",
          "type": "uint256"
        }
      ],
      "name": "transfer",
      "outputs": [
        {
          "internalType": "bool",
          "name": "",
          "type": "bool"
        }
      ],
      "stateMutability": "nonpayable",
      "type": "function"
    },
    {
      "inputs": [
        {
          "internalType": "address",
          "name": "from",
          "type": "address"
        },
        {
          "internalType": "address",
          "name": "to",
          "type": "address"
        },
        {
          "internalType": "uint256",
          "name": "value",
          "type": "uint256"
        }
      ],
      "name": "transferFrom",
      "outputs": [
        {
          "internalType": "bool",
          "name": "",
          "type": "bool"
        }
      ],
      "stateMutability": "nonpayable",
      "type": "function"
    },
    {
      "inputs": [
        {
          "internalType": "address",
          "name": "newOwner",
          "type": "address"
        }
      ],
      "name": "transferOwnership",
      "outputs": [],
      "stateMutability": "nonpayable",
      "type": "function"
    }
  ],
  "bytecode": "0x61016060405234801561001157600080fd5b506040518060400160405280600d81526020017f4d6f62696c697479546f6b656e00000000000000000000000000000000000000815250806040518060400160405280600181526020017f3100000000000000000000000000000000000000000000000000000000000000815250336040518060400160405280600d81526020017f4d6f62696c697479546f6b656e000000000000000000000000000000000000008152506040518060400160405280600381526020017f4d544b000000000000000000000000000000000000000000000000000000000081525081600390816100fb9190610a1c565b50806004908161010b9190610a1c565b505050600073ffffffffffffffffffffffffffffffffffffffff168173ffffffffffffffffffffffffffffffffffffffff16036101805760006040517f1e4fbdf70000000000000000000000000000000000000000000000000000000081526004016101779190610b2f565b60405180910390fd5b61018f8161033060201b60201c565b506101a46006836103f660201b90919060201c565b61012081815250506101c06007826103f660201b90919060201c565b6101408181525050818051906020012060e08181525050808051906020012061010081815250504660a081815250506101fd61044660201b60201c565b608081815250503073ffffffffffffffffffffffffffffffffffffffff1660c08173ffffffffffffffffffffffffffffffffffffffff168152505050505061025567fe0500c3fd381f9460c01b6104a160201b60201c565b61026f6752557d0212b2e1cc60c01b6104a160201b60201c565b610289670f13631ca8257cc960c01b6104a160201b60201c565b6102c03361029b6104a460201b60201c565b600a6102a79190610cb9565b629896806102b59190610d04565b6104ad60201b60201c565b6102da672527722fa38f7fd560c01b6104a160201b60201c565b6102f46793191aa9e45a1f4660c01b6104a160201b60201c565b61032b306103066104a460201b60201c565b600a6103129190610cb9565b624c4b406103209190610d04565b6104ad60201b60201c565b610f85565b6000600560009054906101000a900473ffffffffffffffffffffffffffffffffffffffff16905081600560006101000a81548173ffffffffffffffffffffffffffffffffffffffff021916908373ffffffffffffffffffffffffffffffffffffffff1602179055508173ffffffffffffffffffffffffffffffffffffffff168173ffffffffffffffffffffffffffffffffffffffff167f8be0079c531659141344cd1fd0a4f28419497f9722a3daafe3b4186f6b6457e060405160405180910390a35050565b6000602083511015610418576104118361053560201b60201c565b9050610440565b826104288361059d60201b60201c565b60000190816104379190610a1c565b5060ff60001b90505b92915050565b60007f8b73c3c69bb8fe3d512ecc4cf759cc79239f7b179b0ffacaa9a75d522b39400f60e051610100514630604051602001610486959493929190610d6e565b60405160208183030381529060405280519060200120905090565b50565b60006012905090565b600073ffffffffffffffffffffffffffffffffffffffff168273ffffffffffffffffffffffffffffffffffffffff160361051f5760006040517fec442f050000000000000000000000000000000000000000000000000000000081526004016105169190610b2f565b60405180910390fd5b610531600083836105a760201b60201c565b5050565b600080829050601f8151111561058257826040517f305a27a90000000000000000000000000000000000000000000000000000000081526004016105799190610e46565b60405180910390fd5b80518161058e90610e98565b60001c1760001b915050919050565b6000819050919050565b600073ffffffffffffffffffffffffffffffffffffffff168373ffffffffffffffffffffffffffffffffffffffff16036105f95780600260008282546105ed9190610eff565b925050819055506106cc565b60008060008573ffffffffffffffffffffffffffffffffffffffff1673ffffffffffffffffffffffffffffffffffffffff16815260200190815260200160002054905081811015610685578381836040517fe450d38c00000000000000000000000000000000000000000000000000000000815260040161067c93929190610f33565b60405180910390fd5b8181036000808673ffffffffffffffffffffffffffffffffffffffff1673ffffffffffffffffffffffffffffffffffffffff16815260200190815260200160002081905550505b600073ffffffffffffffffffffffffffffffffffffffff168273ffffffffffffffffffffffffffffffffffffffff16036107155780600260008282540392505081905550610762565b806000808473ffffffffffffffffffffffffffffffffffffffff1673ffffffffffffffffffffffffffffffffffffffff168152602001908152602001600020600082825401925050819055505b8173ffffffffffffffffffffffffffffffffffffffff168373ffffffffffffffffffffffffffffffffffffffff167fddf252ad1be2c89b69c2b068fc378daa952ba7f163c4a11628f55a4df523b3ef836040516107bf9190610f6a565b60405180910390a3505050565b600081519050919050565b7f4e487b7100000000000000000000000000000000000000000000000000000000600052604160045260246000fd5b7f4e487b7100000000000000000000000000000000000000000000000000000000600052602260045260246000fd5b6000600282049050600182168061084d57607f821691505b6020821081036108605761085f610806565b5b50919050565b60008190508160005260206000209050919050565b60006020601f8301049050919050565b600082821b905092915050565b6000600883026108c87fffffffffffffffffffffffffffffffffffffffffffffffffffffffffffffffff8261088b565b6108d2868361088b565b95508019841693508086168417925050509392505050565b6000819050919050565b6000819050919050565b600061091961091461090f846108ea565b6108f4565b6108ea565b9050919050565b6000819050919050565b610933836108fe565b61094761093f82610920565b848454610898565b825550505050565b600090565b61095c61094f565b61096781848461092a565b505050565b5b8181101561098b57610980600082610954565b60018101905061096d565b5050565b601f8211156109d0576109a181610866565b6109aa8461087b565b810160208510156109b9578190505b6109cd6109c58561087b565b83018261096c565b50505b505050565b600082821c905092915050565b60006109f3600019846008026109d5565b1980831691505092915050565b6000610a0c83836109e2565b9150826002028217905092915050565b610a25826107cc565b67ffffffffffffffff811115610a3e57610a3d6107d7565b5b610a488254610835565b610a5382828561098f565b600060209050601f831160018114610a865760008415610a74578287015190505b610a7e8582610a00565b865550610ae6565b601f198416610a9486610866565b60005b82811015610abc57848901518255600182019150602085019450602081019050610a97565b86831015610ad95784890151610ad5601f8916826109e2565b8355505b6001600288020188555050505b505050505050565b600073ffffffffffffffffffffffffffffffffffffffff82169050919050565b6000610b1982610aee565b9050919050565b610b2981610b0e565b82525050565b6000602082019050610b446000830184610b20565b92915050565b7f4e487b7100000000000000000000000000000000000000000000000000000000600052601160045260246000fd5b60008160011c9050919050565b6000808291508390505b6001851115610bd057808604811115610bac57610bab610b4a565b5b6001851615610bbb5780820291505b8081029050610bc985610b79565b9450610b90565b94509492505050565b600082610be95760019050610ca5565b81610bf75760009050610ca5565b8160018114610c0d5760028114610c1757610c46565b6001915050610ca5565b60ff841115610c2957610c28610b4a565b5b8360020a915084821115610c4057610c3f610b4a565b5b50610ca5565b5060208310610133831016604e8410600b8410161715610c7b5782820a905083811115610c7657610c75610b4a565b5b610ca5565b610c888484846001610b86565b92509050818404811115610c9f57610c9e610b4a565b5b81810290505b9392505050565b600060ff82169050919050565b6000610cc4826108ea565b9150610ccf83610cac565b9250610cfc7fffffffffffffffffffffffffffffffffffffffffffffffffffffffffffffffff8484610bd9565b905092915050565b6000610d0f826108ea565b9150610d1a836108ea565b9250828202610d28816108ea565b91508282048414831517610d3f57610d3e610b4a565b5b5092915050565b6000819050919050565b610d5981610d46565b82525050565b610d68816108ea565b82525050565b600060a082019050610d836000830188610d50565b610d906020830187610d50565b610d9d6040830186610d50565b610daa6060830185610d5f565b610db76080830184610b20565b9695505050505050565b600082825260208201905092915050565b60005b83811015610df0578082015181840152602081019050610dd5565b60008484015250505050565b6000601f19601f8301169050919050565b6000610e18826107cc565b610e228185610dc1565b9350610e32818560208601610dd2565b610e3b81610dfc565b840191505092915050565b60006020820190508181036000830152610e608184610e0d565b905092915050565b600081519050919050565b6000819050602082019050919050565b6000610e8f8251610d46565b80915050919050565b6000610ea382610e68565b82610ead84610e73565b9050610eb881610e83565b92506020821015610ef857610ef37fffffffffffffffffffffffffffffffffffffffffffffffffffffffffffffffff8360200360080261088b565b831692505b5050919050565b6000610f0a826108ea565b9150610f15836108ea565b9250828201905080821115610f2d57610f2c610b4a565b5b92915050565b6000606082019050610f486000830186610b20565b610f556020830185610d5f565b610f626040830184610d5f565b949350505050565b6000602082019050610f7f6000830184610d5f565b92915050565b60805160a05160c05160e0516101005161012051610140516125ba610fdf6000396000611317015260006112dc01526000611837015260006118160152600061100d015260006110630152600061108c01526125ba6000f3fe608060405234801561001057600080fd5b50600436106101425760003560e01c806379cc6790116100b8578063a9059cbb1161007c578063a9059cbb14610359578063d505accf14610389578063d59f084a146103a5578063db006a75146103d5578063dd62ed3e146103f1578063f2fde38b1461042157610142565b806379cc6790146102ad5780637ecebe00146102c957806384b0196e146102f95780638da5cb5b1461031d57806395d89b411461033b57610142565b80633519a2f81161010a5780633519a2f8146102015780633644e5151461021d57806340c10f191461023b57806342966c681461025757806370a0823114610273578063715018a6146102a357610142565b806306fdde0314610147578063095ea7b31461016557806318160ddd1461019557806323b872dd146101b3578063313ce567146101e3575b600080fd5b61014f61043d565b60405161015c9190611d24565b60405180910390f35b61017f600480360381019061017a9190611ddf565b6104cf565b60405161018c9190611e3a565b60405180910390f35b61019d6104f2565b6040516101aa9190611e64565b60405180910390f35b6101cd60048036038101906101c89190611e7f565b6104fc565b6040516101da9190611e3a565b60405180910390f35b6101eb61052b565b6040516101f89190611eee565b60405180910390f35b61021b60048036038101906102169190611f09565b610534565b005b6102256105b5565b6040516102329190611f4f565b60405180910390f35b61025560048036038101906102509190611ddf565b6105c4565b005b610271600480360381019061026c9190611f09565b61063d565b005b61028d60048036038101906102889190611f6a565b610651565b60405161029a9190611e64565b60405180910390f35b6102ab610699565b005b6102c760048036038101906102c29190611ddf565b6106ad565b005b6102e360048036038101906102de9190611f6a565b6106cd565b6040516102f09190611e64565b60405180910390f35b6103016106df565b604051610314979695949392919061209f565b60405180910390f35b610325610789565b6040516103329190612123565b60405180910390f35b6103436107b3565b6040516103509190611d24565b60405180910390f35b610373600480360381019061036e9190611ddf565b610845565b6040516103809190611e3a565b60405180910390f35b6103a3600480360381019061039e9190612196565b610868565b005b6103bf60048036038101906103ba9190611f09565b6109b0565b6040516103cc9190611e3a565b60405180910390f35b6103ef60048036038101906103ea9190611f09565b610b74565b005b61040b60048036038101906104069190612238565b610ccf565b6040516104189190611e64565b60405180910390f35b61043b60048036038101906104369190611f6a565b610d56565b005b60606003805461044c906122a7565b80601f0160208091040260200160405190810160405280929190818152602001828054610478906122a7565b80156104c55780601f1061049a576101008083540402835291602001916104c5565b820191906000526020600020905b8154815290600101906020018083116104a857829003601f168201915b5050505050905090565b6000806104da610ddc565b90506104e7818585610de4565b600191505092915050565b6000600254905090565b600080610507610ddc565b9050610514858285610df6565b61051f858585610e8b565b60019150509392505050565b60006012905090565b610548678386a21da021341360c01b610f7f565b610550610f82565b610564679f8b537519d5f57560c01b610f7f565b6105786747190eefb9e4852260c01b610f7f565b61058c671bf870abad289a8b60c01b610f7f565b6105a06734fe086555b3829560c01b610f7f565b6105b26105ab610789565b3083610e8b565b50565b60006105bf611009565b905090565b6105d867305029e3a2d655b460c01b610f7f565b6105e0610f82565b6105f46718efccfc9b0a3f4460c01b610f7f565b61060766846f61ccd3a6c160c01b610f7f565b61061b67c473fc32612d0ae660c01b610f7f565b61062f67c35dade6e08c829560c01b610f7f565b61063982826110c0565b5050565b61064e610648610ddc565b82611142565b50565b60008060008373ffffffffffffffffffffffffffffffffffffffff1673ffffffffffffffffffffffffffffffffffffffff168152602001908152602001600020549050919050565b6106a1610f82565b6106ab60006111c4565b565b6106bf826106b9610ddc565b83610df6565b6106c98282611142565b5050565b60006106d88261128a565b9050919050565b6000606080600080600060606106f36112d3565b6106fb61130e565b46306000801b600067ffffffffffffffff81111561071c5761071b6122d8565b5b60405190808252806020026020018201604052801561074a5781602001602082028036833780820191505090505b507f0f00000000000000000000000000000000000000000000000000000000000000959493929190965096509650965096509650965090919293949596565b6000600560009054906101000a900473ffffffffffffffffffffffffffffffffffffffff16905090565b6060600480546107c2906122a7565b80601f01602080910402602001604051908101604052809291908181526020018280546107ee906122a7565b801561083b5780601f106108105761010080835404028352916020019161083b565b820191906000526020600020905b81548152906001019060200180831161081e57829003601f168201915b5050505050905090565b600080610850610ddc565b905061085d818585610e8b565b600191505092915050565b834211156108ad57836040517f627913020000000000000000000000000000000000000000000000000000000081526004016108a49190611e64565b60405180910390fd5b60007f6e71edae12b1b97f4d1f60370fef10105fa2faae0126114a169c64845d6126c98888886108dc8c611349565b896040516020016108f296959493929190612307565b6040516020818303038152906040528051906020012090506000610915826113a0565b90506000610925828787876113ba565b90508973ffffffffffffffffffffffffffffffffffffffff168173ffffffffffffffffffffffffffffffffffffffff161461099957808a6040517f4b800e46000000000000000000000000000000000000000000000000000000008152600401610990929190612368565b60405180910390fd5b6109a48a8a8a610de4565b50505050505050505050565b60006109c66777866f2a6bf95ed260c01b610f7f565b6109da6714e1cd9c032ce8d560c01b610f7f565b6109ee6799228659c194eedb60c01b610f7f565b600082148015610a0e5750610a0d676e2559f8f7b6d52a60c01b6113ea565b5b80610a3c575081610a1e33610651565b108015610a3b5750610a3a672421449891fda16760c01b6113ea565b5b5b15610a8657610a556722fa0a9ea88d716b60c01b610f7f565b610a696719025c279770ce2b60c01b610f7f565b610a7d672a6c2e6c433e7a7860c01b610f7f565b60009050610b6f565b610a9a67b6b4c5677f132d0860c01b610f7f565b610aae6787d1db729cdd551b60c01b610f7f565b610ac26737aad1ff5157947560c01b610f7f565b610acc3383611142565b610ae06728944f3d300cf40160c01b610f7f565b610af467faccfbc2939a96af60c01b610f7f565b3373ffffffffffffffffffffffffffffffffffffffff167ffd38818f5291bf0bb3a2a48aadc06ba8757865d1dabd804585338aab3009dcb683604051610b3a9190611e64565b60405180910390a2610b5667419b8e038f83152160c01b610f7f565b610b6a677a292a66ad6a00d260c01b610f7f565b600190505b919050565b610b8867b8aa7f7998a33f2c60c01b610f7f565b610b9c672f20b1930581bc7360c01b610f7f565b610bb067e5dd4838d2760fd660c01b610f7f565b610bc4679285b0ba1ffaed1a60c01b610f7f565b80610bce30610651565b1015610c0f576040517f08c379a0000000000000000000000000000000000000000000000000000000008152600401610c0690612403565b60405180910390fd5b610c23679e02d865c9201ff760c01b610f7f565b610c3767f88702358860029660c01b610f7f565b610c4b6719f04bb545db87f060c01b610f7f565b610c56303383610e8b565b610c6a6702aef44f904c656260c01b610f7f565b610c7e6725815df00477583d60c01b610f7f565b3373ffffffffffffffffffffffffffffffffffffffff167f4896181ff8f4543cc00db9fe9b6fb7e6f032b7eb772c72ab1ec1b4d2e03b936982604051610cc49190611e64565b60405180910390a250565b6000600160008473ffffffffffffffffffffffffffffffffffffffff1673ffffffffffffffffffffffffffffffffffffffff16815260200190815260200160002060008373ffffffffffffffffffffffffffffffffffffffff1673ffffffffffffffffffffffffffffffffffffffff16815260200190815260200160002054905092915050565b610d5e610f82565b600073ffffffffffffffffffffffffffffffffffffffff168173ffffffffffffffffffffffffffffffffffffffff1603610dd05760006040517f1e4fbdf7000000000000000000000000000000000000000000000000000000008152600401610dc79190612123565b60405180910390fd5b610dd9816111c4565b50565b600033905090565b610df183838360016113f5565b505050565b6000610e028484610ccf565b90507fffffffffffffffffffffffffffffffffffffffffffffffffffffffffffffffff811015610e855781811015610e75578281836040517ffb8f41b2000000000000000000000000000000000000000000000000000000008152600401610e6c93929190612423565b60405180910390fd5b610e84848484840360006113f5565b5b50505050565b600073ffffffffffffffffffffffffffffffffffffffff168373ffffffffffffffffffffffffffffffffffffffff1603610efd5760006040517f96c6fd1e000000000000000000000000000000000000000000000000000000008152600401610ef49190612123565b60405180910390fd5b600073ffffffffffffffffffffffffffffffffffffffff168273ffffffffffffffffffffffffffffffffffffffff1603610f6f5760006040517fec442f05000000000000000000000000000000000000000000000000000000008152600401610f669190612123565b60405180910390fd5b610f7a8383836115cc565b505050565b50565b610f8a610ddc565b73ffffffffffffffffffffffffffffffffffffffff16610fa8610789565b73ffffffffffffffffffffffffffffffffffffffff161461100757610fcb610ddc565b6040517f118cdaa7000000000000000000000000000000000000000000000000000000008152600401610ffe9190612123565b60405180910390fd5b565b60007f000000000000000000000000000000000000000000000000000000000000000073ffffffffffffffffffffffffffffffffffffffff163073ffffffffffffffffffffffffffffffffffffffff1614801561108557507f000000000000000000000000000000000000000000000000000000000000000046145b156110b2577f000000000000000000000000000000000000000000000000000000000000000090506110bd565b6110ba6117f1565b90505b90565b600073ffffffffffffffffffffffffffffffffffffffff168273ffffffffffffffffffffffffffffffffffffffff16036111325760006040517fec442f050000000000000000000000000000000000000000000000000000000081526004016111299190612123565b60405180910390fd5b61113e600083836115cc565b5050565b600073ffffffffffffffffffffffffffffffffffffffff168273ffffffffffffffffffffffffffffffffffffffff16036111b45760006040517f96c6fd1e0000000000000000000000000000000000000000000000000000000081526004016111ab9190612123565b60405180910390fd5b6111c0826000836115cc565b5050565b6000600560009054906101000a900473ffffffffffffffffffffffffffffffffffffffff16905081600560006101000a81548173ffffffffffffffffffffffffffffffffffffffff021916908373ffffffffffffffffffffffffffffffffffffffff1602179055508173ffffffffffffffffffffffffffffffffffffffff168173ffffffffffffffffffffffffffffffffffffffff167f8be0079c531659141344cd1fd0a4f28419497f9722a3daafe3b4186f6b6457e060405160405180910390a35050565b6000600860008373ffffffffffffffffffffffffffffffffffffffff1673ffffffffffffffffffffffffffffffffffffffff168152602001908152602001600020549050919050565b606061130960067f000000000000000000000000000000000000000000000000000000000000000061188790919063ffffffff16565b905090565b606061134460077f000000000000000000000000000000000000000000000000000000000000000061188790919063ffffffff16565b905090565b6000600860008373ffffffffffffffffffffffffffffffffffffffff1673ffffffffffffffffffffffffffffffffffffffff1681526020019081526020016000206000815480929190600101919050559050919050565b60006113b36113ad611009565b83611937565b9050919050565b6000806000806113cc88888888611978565b9250925092506113dc8282611a6c565b829350505050949350505050565b600060019050919050565b600073ffffffffffffffffffffffffffffffffffffffff168473ffffffffffffffffffffffffffffffffffffffff16036114675760006040517fe602df0500000000000000000000000000000000000000000000000000000000815260040161145e9190612123565b60405180910390fd5b600073ffffffffffffffffffffffffffffffffffffffff168373ffffffffffffffffffffffffffffffffffffffff16036114d95760006040517f94280d620000000000000000000000000000000000000000000000000000000081526004016114d09190612123565b60405180910390fd5b81600160008673ffffffffffffffffffffffffffffffffffffffff1673ffffffffffffffffffffffffffffffffffffffff16815260200190815260200160002060008573ffffffffffffffffffffffffffffffffffffffff1673ffffffffffffffffffffffffffffffffffffffff1681526020019081526020016000208190555080156115c6578273ffffffffffffffffffffffffffffffffffffffff168473ffffffffffffffffffffffffffffffffffffffff167f8c5be1e5ebec7d5bd14f71427d1e84f3dd0314c0f7b2291e5b200ac8c7c3b925846040516115bd9190611e64565b60405180910390a35b50505050565b600073ffffffffffffffffffffffffffffffffffffffff168373ffffffffffffffffffffffffffffffffffffffff160361161e5780600260008282546116129190612489565b925050819055506116f1565b60008060008573ffffffffffffffffffffffffffffffffffffffff1673ffffffffffffffffffffffffffffffffffffffff168152602001908152602001600020549050818110156116aa578381836040517fe450d38c0000000000000000000000000000000000000000000000000000000081526004016116a193929190612423565b60405180910390fd5b8181036000808673ffffffffffffffffffffffffffffffffffffffff1673ffffffffffffffffffffffffffffffffffffffff16815260200190815260200160002081905550505b600073ffffffffffffffffffffffffffffffffffffffff168273ffffffffffffffffffffffffffffffffffffffff160361173a5780600260008282540392505081905550611787565b806000808473ffffffffffffffffffffffffffffffffffffffff1673ffffffffffffffffffffffffffffffffffffffff168152602001908152602001600020600082825401925050819055505b8173ffffffffffffffffffffffffffffffffffffffff168373ffffffffffffffffffffffffffffffffffffffff167fddf252ad1be2c89b69c2b068fc378daa952ba7f163c4a11628f55a4df523b3ef836040516117e49190611e64565b60405180910390a3505050565b60007f8b73c3c69bb8fe3d512ecc4cf759cc79239f7b179b0ffacaa9a75d522b39400f7f00000000000000000000000000000000000000000000000000000000000000007f0000000000000000000000000000000000000000000000000000000000000000463060405160200161186c9594939291906124bd565b60405160208183030381529060405280519060200120905090565b606060ff60001b83146118a45761189d83611bd0565b9050611931565b8180546118b0906122a7565b80601f01602080910402602001604051908101604052809291908181526020018280546118dc906122a7565b80156119295780601f106118fe57610100808354040283529160200191611929565b820191906000526020600020905b81548152906001019060200180831161190c57829003601f168201915b505050505090505b92915050565b60006040517f190100000000000000000000000000000000000000000000000000000000000081528360028201528260228201526042812091505092915050565b60008060007f7fffffffffffffffffffffffffffffff5d576e7357a4501ddfe92f46681b20a08460001c11156119b8576000600385925092509250611a62565b6000600188888888604051600081526020016040526040516119dd9493929190612510565b6020604051602081039080840390855afa1580156119ff573d6000803e3d6000fd5b505050602060405103519050600073ffffffffffffffffffffffffffffffffffffffff168173ffffffffffffffffffffffffffffffffffffffff1603611a5357600060016000801b93509350935050611a62565b8060008060001b935093509350505b9450945094915050565b60006003811115611a8057611a7f612555565b5b826003811115611a9357611a92612555565b5b0315611bcc5760016003811115611aad57611aac612555565b5b826003811115611ac057611abf612555565b5b03611af7576040517ff645eedf00000000000000000000000000000000000000000000000000000000815260040160405180910390fd5b60026003811115611b0b57611b0a612555565b5b826003811115611b1e57611b1d612555565b5b03611b63578060001c6040517ffce698f7000000000000000000000000000000000000000000000000000000008152600401611b5a9190611e64565b60405180910390fd5b600380811115611b7657611b75612555565b5b826003811115611b8957611b88612555565b5b03611bcb57806040517fd78bce0c000000000000000000000000000000000000000000000000000000008152600401611bc29190611f4f565b60405180910390fd5b5b5050565b60606000611bdd83611c44565b90506000602067ffffffffffffffff811115611bfc57611bfb6122d8565b5b6040519080825280601f01601f191660200182016040528015611c2e5781602001600182028036833780820191505090505b5090508181528360208201528092505050919050565b60008060ff8360001c169050601f811115611c8b576040517fb3512b0c00000000000000000000000000000000000000000000000000000000815260040160405180910390fd5b80915050919050565b600081519050919050565b600082825260208201905092915050565b60005b83811015611cce578082015181840152602081019050611cb3565b60008484015250505050565b6000601f19601f8301169050919050565b6000611cf682611c94565b611d008185611c9f565b9350611d10818560208601611cb0565b611d1981611cda565b840191505092915050565b60006020820190508181036000830152611d3e8184611ceb565b905092915050565b600080fd5b600073ffffffffffffffffffffffffffffffffffffffff82169050919050565b6000611d7682611d4b565b9050919050565b611d8681611d6b565b8114611d9157600080fd5b50565b600081359050611da381611d7d565b92915050565b6000819050919050565b611dbc81611da9565b8114611dc757600080fd5b50565b600081359050611dd981611db3565b92915050565b60008060408385031215611df657611df5611d46565b5b6000611e0485828601611d94565b9250506020611e1585828601611dca565b9150509250929050565b60008115159050919050565b611e3481611e1f565b82525050565b6000602082019050611e4f6000830184611e2b565b92915050565b611e5e81611da9565b82525050565b6000602082019050611e796000830184611e55565b92915050565b600080600060608486031215611e9857611e97611d46565b5b6000611ea686828701611d94565b9350506020611eb786828701611d94565b9250506040611ec886828701611dca565b9150509250925092565b600060ff82169050919050565b611ee881611ed2565b82525050565b6000602082019050611f036000830184611edf565b92915050565b600060208284031215611f1f57611f1e611d46565b5b6000611f2d84828501611dca565b91505092915050565b6000819050919050565b611f4981611f36565b82525050565b6000602082019050611f646000830184611f40565b92915050565b600060208284031215611f8057611f7f611d46565b5b6000611f8e84828501611d94565b91505092915050565b60007fff0000000000000000000000000000000000000000000000000000000000000082169050919050565b611fcc81611f97565b82525050565b611fdb81611d6b565b82525050565b600081519050919050565b600082825260208201905092915050565b6000819050602082019050919050565b61201681611da9565b82525050565b6000612028838361200d565b60208301905092915050565b6000602082019050919050565b600061204c82611fe1565b6120568185611fec565b935061206183611ffd565b8060005b83811015612092578151612079888261201c565b975061208483612034565b925050600181019050612065565b5085935050505092915050565b600060e0820190506120b4600083018a611fc3565b81810360208301526120c68189611ceb565b905081810360408301526120da8188611ceb565b90506120e96060830187611e55565b6120f66080830186611fd2565b61210360a0830185611f40565b81810360c08301526121158184612041565b905098975050505050505050565b60006020820190506121386000830184611fd2565b92915050565b61214781611ed2565b811461215257600080fd5b50565b6000813590506121648161213e565b92915050565b61217381611f36565b811461217e57600080fd5b50565b6000813590506121908161216a565b92915050565b600080600080600080600060e0888a0312156121b5576121b4611d46565b5b60006121c38a828b01611d94565b97505060206121d48a828b01611d94565b96505060406121e58a828b01611dca565b95505060606121f68a828b01611dca565b94505060806122078a828b01612155565b93505060a06122188a828b01612181565b92505060c06122298a828b01612181565b91505092959891949750929550565b6000806040838503121561224f5761224e611d46565b5b600061225d85828601611d94565b925050602061226e85828601611d94565b9150509250929050565b7f4e487b7100000000000000000000000000000000000000000000000000000000600052602260045260246000fd5b600060028204905060018216806122bf57607f821691505b6020821081036122d2576122d1612278565b5b50919050565b7f4e487b7100000000000000000000000000000000000000000000000000000000600052604160045260246000fd5b600060c08201905061231c6000830189611f40565b6123296020830188611fd2565b6123366040830187611fd2565b6123436060830186611e55565b6123506080830185611e55565b61235d60a0830184611e55565b979650505050505050565b600060408201905061237d6000830185611fd2565b61238a6020830184611fd2565b9392505050565b7f4d6f62696c697479546f6b656e3a20496e73756666696369656e7420636f6e7460008201527f726163742062616c616e63650000000000000000000000000000000000000000602082015250565b60006123ed602c83611c9f565b91506123f882612391565b604082019050919050565b6000602082019050818103600083015261241c816123e0565b9050919050565b60006060820190506124386000830186611fd2565b6124456020830185611e55565b6124526040830184611e55565b949350505050565b7f4e487b7100000000000000000000000000000000000000000000000000000000600052601160045260246000fd5b600061249482611da9565b915061249f83611da9565b92508282019050808211156124b7576124b661245a565b5b92915050565b600060a0820190506124d26000830188611f40565b6124df6020830187611f40565b6124ec6040830186611f40565b6124f96060830185611e55565b6125066080830184611fd2565b9695505050505050565b60006080820190506125256000830187611f40565b6125326020830186611edf565b61253f6040830185611f40565b61254c6060830184611f40565b95945050505050565b7f4e487b7100000000000000000000000000000000000000000000000000000000600052602160045260246000fdfea264697066735822122091529e5cfdb791093330fa100b7ab114e7d8adc4b8627270d2c4015e642c488664736f6c634300081c0033",
  "linkReferences": {},
  "deployedLinkReferences": {}
}